{
  "_format": "hh-sol-artifact-1",
  "contractName": "Voting",
  "sourceName": "contracts/Voting.sol",
  "abi": [
    {
      "inputs": [],
      "stateMutability": "nonpayable",
      "type": "constructor"
    },
    {
      "anonymous": false,
      "inputs": [
        {
          "indexed": false,
          "internalType": "uint256",
          "name": "proposalId",
          "type": "uint256"
        }
      ],
      "name": "ProposalRegistered",
      "type": "event"
    },
    {
      "anonymous": false,
      "inputs": [
        {
          "indexed": false,
          "internalType": "address",
          "name": "voter",
          "type": "address"
        },
        {
          "indexed": false,
          "internalType": "uint256",
          "name": "proposalId",
          "type": "uint256"
        }
      ],
      "name": "Voted",
      "type": "event"
    },
    {
      "anonymous": false,
      "inputs": [
        {
          "indexed": false,
          "internalType": "address",
          "name": "voterAddress",
          "type": "address"
        }
      ],
      "name": "VoterRegistered",
      "type": "event"
    },
    {
      "anonymous": false,
      "inputs": [
        {
          "indexed": false,
          "internalType": "enum Voting.WorkflowStatus",
          "name": "previousStatus",
          "type": "uint8"
        },
        {
          "indexed": false,
          "internalType": "enum Voting.WorkflowStatus",
          "name": "newStatus",
          "type": "uint8"
        }
      ],
      "name": "WorkflowStatusChange",
      "type": "event"
    },
    {
      "inputs": [],
      "name": "endProposalsRegistration",
      "outputs": [],
      "stateMutability": "nonpayable",
      "type": "function"
    },
    {
      "inputs": [],
      "name": "endVotingSession",
      "outputs": [],
      "stateMutability": "nonpayable",
      "type": "function"
    },
    {
      "inputs": [],
      "name": "getProposalsCount",
      "outputs": [
        {
          "internalType": "uint256",
          "name": "",
          "type": "uint256"
        }
      ],
      "stateMutability": "view",
      "type": "function"
    },
    {
      "inputs": [],
      "name": "getWinningProposal",
      "outputs": [
        {
          "internalType": "string",
          "name": "description",
          "type": "string"
        },
        {
          "internalType": "uint256",
          "name": "voteCount",
          "type": "uint256"
        },
        {
          "internalType": "address",
          "name": "proposer",
          "type": "address"
        }
      ],
      "stateMutability": "view",
      "type": "function"
    },
    {
      "inputs": [],
      "name": "owner",
      "outputs": [
        {
          "internalType": "address",
          "name": "",
          "type": "address"
        }
      ],
      "stateMutability": "view",
      "type": "function"
    },
    {
      "inputs": [
        {
          "internalType": "uint256",
          "name": "",
          "type": "uint256"
        }
      ],
      "name": "proposals",
      "outputs": [
        {
          "internalType": "string",
          "name": "description",
          "type": "string"
        },
        {
          "internalType": "uint256",
          "name": "voteCount",
          "type": "uint256"
        },
        {
          "internalType": "address",
          "name": "proposer",
          "type": "address"
        }
      ],
      "stateMutability": "view",
      "type": "function"
    },
    {
      "inputs": [
        {
          "internalType": "string",
          "name": "_description",
          "type": "string"
        }
      ],
      "name": "registerProposal",
      "outputs": [],
      "stateMutability": "nonpayable",
      "type": "function"
    },
    {
      "inputs": [
        {
          "internalType": "address",
          "name": "_voter",
          "type": "address"
        }
      ],
      "name": "registerVoter",
      "outputs": [],
      "stateMutability": "nonpayable",
      "type": "function"
    },
    {
      "inputs": [],
      "name": "startProposalsRegistration",
      "outputs": [],
      "stateMutability": "nonpayable",
      "type": "function"
    },
    {
      "inputs": [],
      "name": "startVotingSession",
      "outputs": [],
      "stateMutability": "nonpayable",
      "type": "function"
    },
    {
      "inputs": [],
      "name": "tallyVotes",
      "outputs": [],
      "stateMutability": "nonpayable",
      "type": "function"
    },
    {
      "inputs": [
        {
          "internalType": "uint256",
          "name": "_proposalId",
          "type": "uint256"
        }
      ],
      "name": "vote",
      "outputs": [],
      "stateMutability": "nonpayable",
      "type": "function"
    },
    {
      "inputs": [
        {
          "internalType": "address",
          "name": "",
          "type": "address"
        }
      ],
      "name": "voters",
      "outputs": [
        {
          "internalType": "bool",
          "name": "isRegistered",
          "type": "bool"
        },
        {
          "internalType": "bool",
          "name": "hasVoted",
          "type": "bool"
        },
        {
          "internalType": "uint256",
          "name": "votedProposalId",
          "type": "uint256"
        },
        {
          "internalType": "bool",
          "name": "hasProposed",
          "type": "bool"
        }
      ],
      "stateMutability": "view",
      "type": "function"
    },
    {
      "inputs": [],
      "name": "winningProposalId",
      "outputs": [
        {
          "internalType": "uint256",
          "name": "",
          "type": "uint256"
        }
      ],
      "stateMutability": "view",
      "type": "function"
    },
    {
      "inputs": [],
      "name": "workflowStatus",
      "outputs": [
        {
          "internalType": "enum Voting.WorkflowStatus",
          "name": "",
          "type": "uint8"
        }
      ],
      "stateMutability": "view",
      "type": "function"
    }
  ],
  "bytecode": "0x60806040523480156200001157600080fd5b5033600060016101000a81548173ffffffffffffffffffffffffffffffffffffffff021916908373ffffffffffffffffffffffffffffffffffffffff16021790555060008060006101000a81548160ff021916908360058111156200007b576200007a6200015e565b5b02179055506002604051806060016040528060405180602001604052806000815250815260200160008152602001600073ffffffffffffffffffffffffffffffffffffffff168152509080600181540180825580915050600190039060005260206000209060030201600090919091909150600082015181600001908162000104919062000407565b506020820151816001015560408201518160020160006101000a81548173ffffffffffffffffffffffffffffffffffffffff021916908373ffffffffffffffffffffffffffffffffffffffff1602179055505050620004ee565b7f4e487b7100000000000000000000000000000000000000000000000000000000600052602160045260246000fd5b600081519050919050565b7f4e487b7100000000000000000000000000000000000000000000000000000000600052604160045260246000fd5b7f4e487b7100000000000000000000000000000000000000000000000000000000600052602260045260246000fd5b600060028204905060018216806200020f57607f821691505b602082108103620002255762000224620001c7565b5b50919050565b60008190508160005260206000209050919050565b60006020601f8301049050919050565b600082821b905092915050565b6000600883026200028f7fffffffffffffffffffffffffffffffffffffffffffffffffffffffffffffffff8262000250565b6200029b868362000250565b95508019841693508086168417925050509392505050565b6000819050919050565b6000819050919050565b6000620002e8620002e2620002dc84620002b3565b620002bd565b620002b3565b9050919050565b6000819050919050565b6200030483620002c7565b6200031c6200031382620002ef565b8484546200025d565b825550505050565b600090565b6200033362000324565b62000340818484620002f9565b505050565b5b8181101562000368576200035c60008262000329565b60018101905062000346565b5050565b601f821115620003b75762000381816200022b565b6200038c8462000240565b810160208510156200039c578190505b620003b4620003ab8562000240565b83018262000345565b50505b505050565b600082821c905092915050565b6000620003dc60001984600802620003bc565b1980831691505092915050565b6000620003f78383620003c9565b9150826002028217905092915050565b62000412826200018d565b67ffffffffffffffff8111156200042e576200042d62000198565b5b6200043a8254620001f6565b620004478282856200036c565b600060209050601f8311600181146200047f57600084156200046a578287015190505b620004768582620003e9565b865550620004e6565b601f1984166200048f866200022b565b60005b82811015620004b95784890151825560018201915060208501945060208101905062000492565b86831015620004d95784890151620004d5601f891682620003c9565b8355505b6001600288020188555050505b505050505050565b61251280620004fe6000396000f3fe608060405234801561001057600080fd5b50600436106100f55760003560e01c806398e527d311610097578063a7bfab1611610066578063a7bfab1614610241578063c64963c51461024b578063e09b8c7914610269578063ee74c67814610273576100f5565b806398e527d3146101b2578063a1edffa2146101d0578063a3ec138d146101ee578063a513462014610221576100f5565b8063378a2178116100d3578063378a21781461016457806338db6dd31461016e5780636c2974451461018a5780638da5cb5b14610194576100f5565b80630121b93f146100fa578063013cf08b146101165780632f95355b14610148575b600080fd5b610114600480360381019061010f9190611555565b61027d565b005b610130600480360381019061012b9190611555565b61057b565b60405161013f93929190611662565b60405180910390f35b610162600480360381019061015d9190611705565b61065d565b005b61016c6108fc565b005b6101886004803603810190610183919061177e565b610aee565b005b610192610d16565b005b61019c610e81565b6040516101a991906117ab565b60405180910390f35b6101ba610ea7565b6040516101c791906117c6565b60405180910390f35b6101d8610ec0565b6040516101e59190611858565b60405180910390f35b6102086004803603810190610203919061177e565b610ed1565b604051610218949392919061188e565b60405180910390f35b610229610f28565b60405161023893929190611662565b60405180910390f35b6102496110ce565b005b610253611239565b60405161026091906117c6565b60405180910390f35b61027161123f565b005b61027b6113aa565b005b600160003373ffffffffffffffffffffffffffffffffffffffff1673ffffffffffffffffffffffffffffffffffffffff16815260200190815260200160002060000160009054906101000a900460ff1661030c576040517f08c379a000000000000000000000000000000000000000000000000000000000815260040161030390611945565b60405180910390fd5b600360058111156103205761031f6117e1565b5b60008054906101000a900460ff1660058111156103405761033f6117e1565b5b14610380576040517f08c379a0000000000000000000000000000000000000000000000000000000008152600401610377906119b1565b60405180910390fd5b600160003373ffffffffffffffffffffffffffffffffffffffff1673ffffffffffffffffffffffffffffffffffffffff16815260200190815260200160002060000160019054906101000a900460ff1615610410576040517f08c379a000000000000000000000000000000000000000000000000000000000815260040161040790611a1d565b60405180910390fd5b600081118015610424575060028054905081105b610463576040517f08c379a000000000000000000000000000000000000000000000000000000000815260040161045a90611a89565b60405180910390fd5b60018060003373ffffffffffffffffffffffffffffffffffffffff1673ffffffffffffffffffffffffffffffffffffffff16815260200190815260200160002060000160016101000a81548160ff02191690831515021790555080600160003373ffffffffffffffffffffffffffffffffffffffff1673ffffffffffffffffffffffffffffffffffffffff168152602001908152602001600020600101819055506002818154811061051857610517611aa9565b5b9060005260206000209060030201600101600081548092919061053a90611b07565b91905055507f4d99b957a2bc29a30ebd96a7be8e68fe50a3c701db28a91436490b7d53870ca43382604051610570929190611b4f565b60405180910390a150565b6002818154811061058b57600080fd5b90600052602060002090600302016000915090508060000180546105ae90611ba7565b80601f01602080910402602001604051908101604052809291908181526020018280546105da90611ba7565b80156106275780601f106105fc57610100808354040283529160200191610627565b820191906000526020600020905b81548152906001019060200180831161060a57829003601f168201915b5050505050908060010154908060020160009054906101000a900473ffffffffffffffffffffffffffffffffffffffff16905083565b600160003373ffffffffffffffffffffffffffffffffffffffff1673ffffffffffffffffffffffffffffffffffffffff16815260200190815260200160002060000160009054906101000a900460ff166106ec576040517f08c379a00000000000000000000000000000000000000000000000000000000081526004016106e390611945565b60405180910390fd5b60016005811115610700576106ff6117e1565b5b60008054906101000a900460ff1660058111156107205761071f6117e1565b5b14610760576040517f08c379a000000000000000000000000000000000000000000000000000000000815260040161075790611c4a565b60405180910390fd5b600082829050116107a6576040517f08c379a000000000000000000000000000000000000000000000000000000000815260040161079d90611cdc565b60405180910390fd5b6002604051806060016040528084848080601f016020809104026020016040519081016040528093929190818152602001838380828437600081840152601f19601f820116905080830192505050505050508152602001600081526020013373ffffffffffffffffffffffffffffffffffffffff168152509080600181540180825580915050600190039060005260206000209060030201600090919091909150600082015181600001908161085c9190611ed7565b506020820151816001015560408201518160020160006101000a81548173ffffffffffffffffffffffffffffffffffffffff021916908373ffffffffffffffffffffffffffffffffffffffff16021790555050507f92e393e9b54e2f801d3ea4beb0c5e71a21cc34a5d34b77d0fb8a3aa1650dc18f60016002805490506108e39190611fa9565b6040516108f091906117c6565b60405180910390a15050565b600060019054906101000a900473ffffffffffffffffffffffffffffffffffffffff1673ffffffffffffffffffffffffffffffffffffffff163373ffffffffffffffffffffffffffffffffffffffff161461098c576040517f08c379a00000000000000000000000000000000000000000000000000000000081526004016109839061204f565b60405180910390fd5b600460058111156109a05761099f6117e1565b5b60008054906101000a900460ff1660058111156109c0576109bf6117e1565b5b14610a00576040517f08c379a00000000000000000000000000000000000000000000000000000000081526004016109f7906120e1565b60405180910390fd5b600080600190505b600280549050811015610a85578160028281548110610a2a57610a29611aa9565b5b9060005260206000209060030201600101541115610a725760028181548110610a5657610a55611aa9565b5b9060005260206000209060030201600101549150806003819055505b8080610a7d90611b07565b915050610a08565b5060056000806101000a81548160ff02191690836005811115610aab57610aaa6117e1565b5b02179055507f0a97a4ee45751e2abf3e4fc8946939630b11b371ea8ae39ccdc3056e98f5cc3f60046005604051610ae3929190612101565b60405180910390a150565b600060019054906101000a900473ffffffffffffffffffffffffffffffffffffffff1673ffffffffffffffffffffffffffffffffffffffff163373ffffffffffffffffffffffffffffffffffffffff1614610b7e576040517f08c379a0000000000000000000000000000000000000000000000000000000008152600401610b759061204f565b60405180910390fd5b60006005811115610b9257610b916117e1565b5b60008054906101000a900460ff166005811115610bb257610bb16117e1565b5b14610bf2576040517f08c379a0000000000000000000000000000000000000000000000000000000008152600401610be99061219c565b60405180910390fd5b600160008273ffffffffffffffffffffffffffffffffffffffff1673ffffffffffffffffffffffffffffffffffffffff16815260200190815260200160002060000160009054906101000a900460ff1615610c82576040517f08c379a0000000000000000000000000000000000000000000000000000000008152600401610c799061222e565b60405180910390fd5b60018060008373ffffffffffffffffffffffffffffffffffffffff1673ffffffffffffffffffffffffffffffffffffffff16815260200190815260200160002060000160006101000a81548160ff0219169083151502179055507fb6be2187d059cc2a55fe29e0e503b566e1e0f8c8780096e185429350acffd3dd81604051610d0b91906117ab565b60405180910390a150565b600060019054906101000a900473ffffffffffffffffffffffffffffffffffffffff1673ffffffffffffffffffffffffffffffffffffffff163373ffffffffffffffffffffffffffffffffffffffff1614610da6576040517f08c379a0000000000000000000000000000000000000000000000000000000008152600401610d9d9061204f565b60405180910390fd5b60016005811115610dba57610db96117e1565b5b60008054906101000a900460ff166005811115610dda57610dd96117e1565b5b14610e1a576040517f08c379a0000000000000000000000000000000000000000000000000000000008152600401610e11906122c0565b60405180910390fd5b60026000806101000a81548160ff02191690836005811115610e3f57610e3e6117e1565b5b02179055507f0a97a4ee45751e2abf3e4fc8946939630b11b371ea8ae39ccdc3056e98f5cc3f60016002604051610e77929190612101565b60405180910390a1565b600060019054906101000a900473ffffffffffffffffffffffffffffffffffffffff1681565b60006001600280549050610ebb9190611fa9565b905090565b60008054906101000a900460ff1681565b60016020528060005260406000206000915090508060000160009054906101000a900460ff16908060000160019054906101000a900460ff16908060010154908060020160009054906101000a900460ff16905084565b6060600080600580811115610f4057610f3f6117e1565b5b60008054906101000a900460ff166005811115610f6057610f5f6117e1565b5b14610fa0576040517f08c379a0000000000000000000000000000000000000000000000000000000008152600401610f9790612352565b60405180910390fd5b600260035481548110610fb657610fb5611aa9565b5b9060005260206000209060030201600001600260035481548110610fdd57610fdc611aa9565b5b90600052602060002090600302016001015460026003548154811061100557611004611aa9565b5b906000526020600020906003020160020160009054906101000a900473ffffffffffffffffffffffffffffffffffffffff1682805461104390611ba7565b80601f016020809104026020016040519081016040528092919081815260200182805461106f90611ba7565b80156110bc5780601f10611091576101008083540402835291602001916110bc565b820191906000526020600020905b81548152906001019060200180831161109f57829003601f168201915b50505050509250925092509250909192565b600060019054906101000a900473ffffffffffffffffffffffffffffffffffffffff1673ffffffffffffffffffffffffffffffffffffffff163373ffffffffffffffffffffffffffffffffffffffff161461115e576040517f08c379a00000000000000000000000000000000000000000000000000000000081526004016111559061204f565b60405180910390fd5b60036005811115611172576111716117e1565b5b60008054906101000a900460ff166005811115611192576111916117e1565b5b146111d2576040517f08c379a00000000000000000000000000000000000000000000000000000000081526004016111c9906123be565b60405180910390fd5b60046000806101000a81548160ff021916908360058111156111f7576111f66117e1565b5b02179055507f0a97a4ee45751e2abf3e4fc8946939630b11b371ea8ae39ccdc3056e98f5cc3f6003600460405161122f929190612101565b60405180910390a1565b60035481565b600060019054906101000a900473ffffffffffffffffffffffffffffffffffffffff1673ffffffffffffffffffffffffffffffffffffffff163373ffffffffffffffffffffffffffffffffffffffff16146112cf576040517f08c379a00000000000000000000000000000000000000000000000000000000081526004016112c69061204f565b60405180910390fd5b600060058111156112e3576112e26117e1565b5b60008054906101000a900460ff166005811115611303576113026117e1565b5b14611343576040517f08c379a000000000000000000000000000000000000000000000000000000000815260040161133a90612450565b60405180910390fd5b60016000806101000a81548160ff02191690836005811115611368576113676117e1565b5b02179055507f0a97a4ee45751e2abf3e4fc8946939630b11b371ea8ae39ccdc3056e98f5cc3f600060016040516113a0929190612101565b60405180910390a1565b600060019054906101000a900473ffffffffffffffffffffffffffffffffffffffff1673ffffffffffffffffffffffffffffffffffffffff163373ffffffffffffffffffffffffffffffffffffffff161461143a576040517f08c379a00000000000000000000000000000000000000000000000000000000081526004016114319061204f565b60405180910390fd5b6002600581111561144e5761144d6117e1565b5b60008054906101000a900460ff16600581111561146e5761146d6117e1565b5b146114ae576040517f08c379a00000000000000000000000000000000000000000000000000000000081526004016114a5906124bc565b60405180910390fd5b60036000806101000a81548160ff021916908360058111156114d3576114d26117e1565b5b02179055507f0a97a4ee45751e2abf3e4fc8946939630b11b371ea8ae39ccdc3056e98f5cc3f6002600360405161150b929190612101565b60405180910390a1565b600080fd5b600080fd5b6000819050919050565b6115328161151f565b811461153d57600080fd5b50565b60008135905061154f81611529565b92915050565b60006020828403121561156b5761156a611515565b5b600061157984828501611540565b91505092915050565b600081519050919050565b600082825260208201905092915050565b60005b838110156115bc5780820151818401526020810190506115a1565b60008484015250505050565b6000601f19601f8301169050919050565b60006115e482611582565b6115ee818561158d565b93506115fe81856020860161159e565b611607816115c8565b840191505092915050565b61161b8161151f565b82525050565b600073ffffffffffffffffffffffffffffffffffffffff82169050919050565b600061164c82611621565b9050919050565b61165c81611641565b82525050565b6000606082019050818103600083015261167c81866115d9565b905061168b6020830185611612565b6116986040830184611653565b949350505050565b600080fd5b600080fd5b600080fd5b60008083601f8401126116c5576116c46116a0565b5b8235905067ffffffffffffffff8111156116e2576116e16116a5565b5b6020830191508360018202830111156116fe576116fd6116aa565b5b9250929050565b6000806020838503121561171c5761171b611515565b5b600083013567ffffffffffffffff81111561173a5761173961151a565b5b611746858286016116af565b92509250509250929050565b61175b81611641565b811461176657600080fd5b50565b60008135905061177881611752565b92915050565b60006020828403121561179457611793611515565b5b60006117a284828501611769565b91505092915050565b60006020820190506117c06000830184611653565b92915050565b60006020820190506117db6000830184611612565b92915050565b7f4e487b7100000000000000000000000000000000000000000000000000000000600052602160045260246000fd5b60068110611821576118206117e1565b5b50565b600081905061183282611810565b919050565b600061184282611824565b9050919050565b61185281611837565b82525050565b600060208201905061186d6000830184611849565b92915050565b60008115159050919050565b61188881611873565b82525050565b60006080820190506118a3600083018761187f565b6118b0602083018661187f565b6118bd6040830185611612565b6118ca606083018461187f565b95945050505050565b7f542765732070617320696e736372697420636f6d6d6520766f74616e742c207360008201527f6f72727921000000000000000000000000000000000000000000000000000000602082015250565b600061192f60258361158d565b915061193a826118d3565b604082019050919050565b6000602082019050818103600083015261195e81611922565b9050919050565b7f432765737420706173206c65206d6f6d656e7420646520766f74657221000000600082015250565b600061199b601d8361158d565b91506119a682611965565b602082019050919050565b600060208201905081810360008301526119ca8161198e565b9050919050565b7f542761732064656a6120766f74652c2070617320646520747269636865210000600082015250565b6000611a07601e8361158d565b9150611a12826119d1565b602082019050919050565b60006020820190508181036000830152611a36816119fa565b9050919050565b7f43657474652070726f706f736974696f6e206e27657869737465207061732100600082015250565b6000611a73601f8361158d565b9150611a7e82611a3d565b602082019050919050565b60006020820190508181036000830152611aa281611a66565b9050919050565b7f4e487b7100000000000000000000000000000000000000000000000000000000600052603260045260246000fd5b7f4e487b7100000000000000000000000000000000000000000000000000000000600052601160045260246000fd5b6000611b128261151f565b91507fffffffffffffffffffffffffffffffffffffffffffffffffffffffffffffffff8203611b4457611b43611ad8565b5b600182019050919050565b6000604082019050611b646000830185611653565b611b716020830184611612565b9392505050565b7f4e487b7100000000000000000000000000000000000000000000000000000000600052602260045260246000fd5b60006002820490506001821680611bbf57607f821691505b602082108103611bd257611bd1611b78565b5b50919050565b7f432765737420706173206c65206d6f6d656e742064652070726f706f7365722060008201527f6465732074727563732100000000000000000000000000000000000000000000602082015250565b6000611c34602a8361158d565b9150611c3f82611bd8565b604082019050919050565b60006020820190508181036000830152611c6381611c27565b9050919050565b7f46617574206175206d6f696e7320656372697265207175656c7175652063686f60008201527f73652c206e6f6e3f000000000000000000000000000000000000000000000000602082015250565b6000611cc660288361158d565b9150611cd182611c6a565b604082019050919050565b60006020820190508181036000830152611cf581611cb9565b9050919050565b7f4e487b7100000000000000000000000000000000000000000000000000000000600052604160045260246000fd5b60008190508160005260206000209050919050565b60006020601f8301049050919050565b600082821b905092915050565b600060088302611d8d7fffffffffffffffffffffffffffffffffffffffffffffffffffffffffffffffff82611d50565b611d978683611d50565b95508019841693508086168417925050509392505050565b6000819050919050565b6000611dd4611dcf611dca8461151f565b611daf565b61151f565b9050919050565b6000819050919050565b611dee83611db9565b611e02611dfa82611ddb565b848454611d5d565b825550505050565b600090565b611e17611e0a565b611e22818484611de5565b505050565b5b81811015611e4657611e3b600082611e0f565b600181019050611e28565b5050565b601f821115611e8b57611e5c81611d2b565b611e6584611d40565b81016020851015611e74578190505b611e88611e8085611d40565b830182611e27565b50505b505050565b600082821c905092915050565b6000611eae60001984600802611e90565b1980831691505092915050565b6000611ec78383611e9d565b9150826002028217905092915050565b611ee082611582565b67ffffffffffffffff811115611ef957611ef8611cfc565b5b611f038254611ba7565b611f0e828285611e4a565b600060209050601f831160018114611f415760008415611f2f578287015190505b611f398582611ebb565b865550611fa1565b601f198416611f4f86611d2b565b60005b82811015611f7757848901518255600182019150602085019450602081019050611f52565b86831015611f945784890151611f90601f891682611e9d565b8355505b6001600288020188555050505b505050505050565b6000611fb48261151f565b9150611fbf8361151f565b9250828203905081811115611fd757611fd6611ad8565b5b92915050565b7f5427657320706173206c6520626f73732c20696c20666175742071756520747560008201527f20736f69732061646d696e210000000000000000000000000000000000000000602082015250565b6000612039602c8361158d565b915061204482611fdd565b604082019050919050565b600060208201905081810360008301526120688161202c565b9050919050565b7f417474656e64732071756520746f7574206c65206d6f6e64652061697420666960008201527f6e6920646520766f746572210000000000000000000000000000000000000000602082015250565b60006120cb602c8361158d565b91506120d68261206f565b604082019050919050565b600060208201905081810360008301526120fa816120be565b9050919050565b60006040820190506121166000830185611849565b6121236020830184611849565b9392505050565b7f54726f70207461726420706f757220616a6f757465722064657320766f74616e60008201527f7473210000000000000000000000000000000000000000000000000000000000602082015250565b600061218660238361158d565b91506121918261212a565b604082019050919050565b600060208201905081810360008301526121b581612179565b9050919050565b7f43652067617273206573742064656a6120696e73637269742c2074276573206460008201527f697374726169743f000000000000000000000000000000000000000000000000602082015250565b600061221860288361158d565b9150612223826121bc565b604082019050919050565b600060208201905081810360008301526122478161220b565b9050919050565b7f4661757420642761626f72642064656d6172726572206c61207068617365206460008201527f652070726f706f736974696f6e73210000000000000000000000000000000000602082015250565b60006122aa602f8361158d565b91506122b58261224e565b604082019050919050565b600060208201905081810360008301526122d98161229d565b9050919050565b7f50617469656e63652c206f6e206e27612070617320656e636f726520636f6d7060008201527f7465210000000000000000000000000000000000000000000000000000000000602082015250565b600061233c60238361158d565b9150612347826122e0565b604082019050919050565b6000602082019050818103600083015261236b8161232f565b9050919050565b7f4661757420642761626f726420636f6d6d656e636572206c6520766f74652100600082015250565b60006123a8601f8361158d565b91506123b382612372565b602082019050919050565b600060208201905081810360008301526123d78161239b565b9050919050565b7f4f6e206e27657374207061732061206c6120626f6e6e652065746170652c206660008201527f6175742073756976726521000000000000000000000000000000000000000000602082015250565b600061243a602b8361158d565b9150612445826123de565b604082019050919050565b600060208201905081810360008301526124698161242d565b9050919050565b7f4f6e206e276573742070617320707265747320706f757220766f746572210000600082015250565b60006124a6601e8361158d565b91506124b182612470565b602082019050919050565b600060208201905081810360008301526124d581612499565b905091905056fea26469706673582212201c71ac42fa5afd91fbde7d38f0e5ee125e225fe6c0539823481162a02a26ffe064736f6c63430008140033",
  "linkReferences": {},
  "deployedLinkReferences": {}
}