{
  "_format": "hh-sol-artifact-1",
  "contractName": "Voting",
  "sourceName": "contracts/Voting.sol",
  "abi": [
    {
      "inputs": [],
      "stateMutability": "nonpayable",
      "type": "constructor"
    },
    {
      "anonymous": false,
      "inputs": [
        {
          "indexed": false,
          "internalType": "uint256",
          "name": "proposalId",
          "type": "uint256"
        }
      ],
      "name": "ProposalRegistered",
      "type": "event"
    },
    {
      "anonymous": false,
      "inputs": [
        {
          "indexed": false,
          "internalType": "address",
          "name": "voter",
          "type": "address"
        },
        {
          "indexed": false,
          "internalType": "uint256",
          "name": "proposalId",
          "type": "uint256"
        }
      ],
      "name": "Voted",
      "type": "event"
    },
    {
      "anonymous": false,
      "inputs": [
        {
          "indexed": false,
          "internalType": "address",
          "name": "voterAddress",
          "type": "address"
        }
      ],
      "name": "VoterRegistered",
      "type": "event"
    },
    {
      "anonymous": false,
      "inputs": [
        {
          "indexed": false,
          "internalType": "enum Voting.WorkflowStatus",
          "name": "previousStatus",
          "type": "uint8"
        },
        {
          "indexed": false,
          "internalType": "enum Voting.WorkflowStatus",
          "name": "newStatus",
          "type": "uint8"
        }
      ],
      "name": "WorkflowStatusChange",
      "type": "event"
    },
    {
      "inputs": [],
      "name": "endProposalsRegistration",
      "outputs": [],
      "stateMutability": "nonpayable",
      "type": "function"
    },
    {
      "inputs": [],
      "name": "endVotingSession",
      "outputs": [],
      "stateMutability": "nonpayable",
      "type": "function"
    },
    {
      "inputs": [],
      "name": "getProposalsCount",
      "outputs": [
        {
          "internalType": "uint256",
          "name": "",
          "type": "uint256"
        }
      ],
      "stateMutability": "view",
      "type": "function"
    },
    {
      "inputs": [],
      "name": "getWinningProposal",
      "outputs": [
        {
          "internalType": "string",
          "name": "description",
          "type": "string"
        },
        {
          "internalType": "uint256",
          "name": "voteCount",
          "type": "uint256"
        },
        {
          "internalType": "address",
          "name": "proposer",
          "type": "address"
        }
      ],
      "stateMutability": "view",
      "type": "function"
    },
    {
      "inputs": [],
      "name": "owner",
      "outputs": [
        {
          "internalType": "address",
          "name": "",
          "type": "address"
        }
      ],
      "stateMutability": "view",
      "type": "function"
    },
    {
      "inputs": [
        {
          "internalType": "uint256",
          "name": "",
          "type": "uint256"
        }
      ],
      "name": "proposals",
      "outputs": [
        {
          "internalType": "string",
          "name": "description",
          "type": "string"
        },
        {
          "internalType": "uint256",
          "name": "voteCount",
          "type": "uint256"
        },
        {
          "internalType": "address",
          "name": "proposer",
          "type": "address"
        }
      ],
      "stateMutability": "view",
      "type": "function"
    },
    {
      "inputs": [
        {
          "internalType": "string",
          "name": "_description",
          "type": "string"
        }
      ],
      "name": "registerProposal",
      "outputs": [],
      "stateMutability": "nonpayable",
      "type": "function"
    },
    {
      "inputs": [
        {
          "internalType": "address",
          "name": "_voter",
          "type": "address"
        }
      ],
      "name": "registerVoter",
      "outputs": [],
      "stateMutability": "nonpayable",
      "type": "function"
    },
    {
      "inputs": [],
      "name": "resetVoting",
      "outputs": [],
      "stateMutability": "nonpayable",
      "type": "function"
    },
    {
      "inputs": [],
      "name": "startProposalsRegistration",
      "outputs": [],
      "stateMutability": "nonpayable",
      "type": "function"
    },
    {
      "inputs": [],
      "name": "startVotingSession",
      "outputs": [],
      "stateMutability": "nonpayable",
      "type": "function"
    },
    {
      "inputs": [],
      "name": "tallyVotes",
      "outputs": [],
      "stateMutability": "nonpayable",
      "type": "function"
    },
    {
      "inputs": [
        {
          "internalType": "uint256",
          "name": "_proposalId",
          "type": "uint256"
        }
      ],
      "name": "vote",
      "outputs": [],
      "stateMutability": "nonpayable",
      "type": "function"
    },
    {
      "inputs": [],
      "name": "voterCount",
      "outputs": [
        {
          "internalType": "uint256",
          "name": "",
          "type": "uint256"
        }
      ],
      "stateMutability": "view",
      "type": "function"
    },
    {
      "inputs": [
        {
          "internalType": "address",
          "name": "",
          "type": "address"
        }
      ],
      "name": "voters",
      "outputs": [
        {
          "internalType": "bool",
          "name": "isRegistered",
          "type": "bool"
        },
        {
          "internalType": "bool",
          "name": "hasVoted",
          "type": "bool"
        },
        {
          "internalType": "uint256",
          "name": "votedProposalId",
          "type": "uint256"
        },
        {
          "internalType": "bool",
          "name": "hasProposed",
          "type": "bool"
        }
      ],
      "stateMutability": "view",
      "type": "function"
    },
    {
      "inputs": [],
      "name": "winningProposalId",
      "outputs": [
        {
          "internalType": "uint256",
          "name": "",
          "type": "uint256"
        }
      ],
      "stateMutability": "view",
      "type": "function"
    },
    {
      "inputs": [],
      "name": "workflowStatus",
      "outputs": [
        {
          "internalType": "enum Voting.WorkflowStatus",
          "name": "",
          "type": "uint8"
        }
      ],
      "stateMutability": "view",
      "type": "function"
    }
  ],
  "bytecode": "0x60806040523480156200001157600080fd5b5033600060016101000a81548173ffffffffffffffffffffffffffffffffffffffff021916908373ffffffffffffffffffffffffffffffffffffffff16021790555060008060006101000a81548160ff021916908360058111156200007b576200007a6200015e565b5b02179055506002604051806060016040528060405180602001604052806000815250815260200160008152602001600073ffffffffffffffffffffffffffffffffffffffff168152509080600181540180825580915050600190039060005260206000209060030201600090919091909150600082015181600001908162000104919062000407565b506020820151816001015560408201518160020160006101000a81548173ffffffffffffffffffffffffffffffffffffffff021916908373ffffffffffffffffffffffffffffffffffffffff1602179055505050620004ee565b7f4e487b7100000000000000000000000000000000000000000000000000000000600052602160045260246000fd5b600081519050919050565b7f4e487b7100000000000000000000000000000000000000000000000000000000600052604160045260246000fd5b7f4e487b7100000000000000000000000000000000000000000000000000000000600052602260045260246000fd5b600060028204905060018216806200020f57607f821691505b602082108103620002255762000224620001c7565b5b50919050565b60008190508160005260206000209050919050565b60006020601f8301049050919050565b600082821b905092915050565b6000600883026200028f7fffffffffffffffffffffffffffffffffffffffffffffffffffffffffffffffff8262000250565b6200029b868362000250565b95508019841693508086168417925050509392505050565b6000819050919050565b6000819050919050565b6000620002e8620002e2620002dc84620002b3565b620002bd565b620002b3565b9050919050565b6000819050919050565b6200030483620002c7565b6200031c6200031382620002ef565b8484546200025d565b825550505050565b600090565b6200033362000324565b62000340818484620002f9565b505050565b5b8181101562000368576200035c60008262000329565b60018101905062000346565b5050565b601f821115620003b75762000381816200022b565b6200038c8462000240565b810160208510156200039c578190505b620003b4620003ab8562000240565b83018262000345565b50505b505050565b600082821c905092915050565b6000620003dc60001984600802620003bc565b1980831691505092915050565b6000620003f78383620003c9565b9150826002028217905092915050565b62000412826200018d565b67ffffffffffffffff8111156200042e576200042d62000198565b5b6200043a8254620001f6565b620004478282856200036c565b600060209050601f8311600181146200047f57600084156200046a578287015190505b620004768582620003e9565b865550620004e6565b601f1984166200048f866200022b565b60005b82811015620004b95784890151825560018201915060208501945060208101905062000492565b86831015620004d95784890151620004d5601f891682620003c9565b8355505b6001600288020188555050505b505050505050565b612bb680620004fe6000396000f3fe608060405234801561001057600080fd5b506004361061010b5760003560e01c80638da5cb5b116100a2578063a513462011610071578063a51346201461025f578063a7bfab161461027f578063c64963c514610289578063e09b8c79146102a7578063ee74c678146102b15761010b565b80638da5cb5b146101d257806398e527d3146101f0578063a1edffa21461020e578063a3ec138d1461022c5761010b565b806338db6dd3116100de57806338db6dd31461018457806342169e48146101a05780636c297445146101be578063856e698c146101c85761010b565b80630121b93f14610110578063013cf08b1461012c5780632f95355b1461015e578063378a21781461017a575b600080fd5b61012a600480360381019061012591906119b1565b6102bb565b005b610146600480360381019061014191906119b1565b6105b9565b60405161015593929190611abe565b60405180910390f35b61017860048036038101906101739190611b61565b61069b565b005b61018261093a565b005b61019e60048036038101906101999190611bda565b610b2c565b005b6101a8610d6c565b6040516101b59190611c07565b60405180910390f35b6101c6610d72565b005b6101d0610edd565b005b6101da611133565b6040516101e79190611c22565b60405180910390f35b6101f8611159565b6040516102059190611c07565b60405180910390f35b610216611172565b6040516102239190611cb4565b60405180910390f35b61024660048036038101906102419190611bda565b611183565b6040516102569493929190611cea565b60405180910390f35b6102676111da565b60405161027693929190611abe565b60405180910390f35b610287611380565b005b6102916114eb565b60405161029e9190611c07565b60405180910390f35b6102af6114f1565b005b6102b96116a2565b005b600160003373ffffffffffffffffffffffffffffffffffffffff1673ffffffffffffffffffffffffffffffffffffffff16815260200190815260200160002060000160009054906101000a900460ff1661034a576040517f08c379a000000000000000000000000000000000000000000000000000000000815260040161034190611da1565b60405180910390fd5b6003600581111561035e5761035d611c3d565b5b60008054906101000a900460ff16600581111561037e5761037d611c3d565b5b146103be576040517f08c379a00000000000000000000000000000000000000000000000000000000081526004016103b590611e0d565b60405180910390fd5b600160003373ffffffffffffffffffffffffffffffffffffffff1673ffffffffffffffffffffffffffffffffffffffff16815260200190815260200160002060000160019054906101000a900460ff161561044e576040517f08c379a000000000000000000000000000000000000000000000000000000000815260040161044590611e79565b60405180910390fd5b600081118015610462575060028054905081105b6104a1576040517f08c379a000000000000000000000000000000000000000000000000000000000815260040161049890611ee5565b60405180910390fd5b60018060003373ffffffffffffffffffffffffffffffffffffffff1673ffffffffffffffffffffffffffffffffffffffff16815260200190815260200160002060000160016101000a81548160ff02191690831515021790555080600160003373ffffffffffffffffffffffffffffffffffffffff1673ffffffffffffffffffffffffffffffffffffffff168152602001908152602001600020600101819055506002818154811061055657610555611f05565b5b9060005260206000209060030201600101600081548092919061057890611f63565b91905055507f4d99b957a2bc29a30ebd96a7be8e68fe50a3c701db28a91436490b7d53870ca433826040516105ae929190611fab565b60405180910390a150565b600281815481106105c957600080fd5b90600052602060002090600302016000915090508060000180546105ec90612003565b80601f016020809104026020016040519081016040528092919081815260200182805461061890612003565b80156106655780601f1061063a57610100808354040283529160200191610665565b820191906000526020600020905b81548152906001019060200180831161064857829003601f168201915b5050505050908060010154908060020160009054906101000a900473ffffffffffffffffffffffffffffffffffffffff16905083565b600160003373ffffffffffffffffffffffffffffffffffffffff1673ffffffffffffffffffffffffffffffffffffffff16815260200190815260200160002060000160009054906101000a900460ff1661072a576040517f08c379a000000000000000000000000000000000000000000000000000000000815260040161072190611da1565b60405180910390fd5b6001600581111561073e5761073d611c3d565b5b60008054906101000a900460ff16600581111561075e5761075d611c3d565b5b1461079e576040517f08c379a0000000000000000000000000000000000000000000000000000000008152600401610795906120a6565b60405180910390fd5b600082829050116107e4576040517f08c379a00000000000000000000000000000000000000000000000000000000081526004016107db90612138565b60405180910390fd5b6002604051806060016040528084848080601f016020809104026020016040519081016040528093929190818152602001838380828437600081840152601f19601f820116905080830192505050505050508152602001600081526020013373ffffffffffffffffffffffffffffffffffffffff168152509080600181540180825580915050600190039060005260206000209060030201600090919091909150600082015181600001908161089a9190612333565b506020820151816001015560408201518160020160006101000a81548173ffffffffffffffffffffffffffffffffffffffff021916908373ffffffffffffffffffffffffffffffffffffffff16021790555050507f92e393e9b54e2f801d3ea4beb0c5e71a21cc34a5d34b77d0fb8a3aa1650dc18f60016002805490506109219190612405565b60405161092e9190611c07565b60405180910390a15050565b600060019054906101000a900473ffffffffffffffffffffffffffffffffffffffff1673ffffffffffffffffffffffffffffffffffffffff163373ffffffffffffffffffffffffffffffffffffffff16146109ca576040517f08c379a00000000000000000000000000000000000000000000000000000000081526004016109c1906124ab565b60405180910390fd5b600460058111156109de576109dd611c3d565b5b60008054906101000a900460ff1660058111156109fe576109fd611c3d565b5b14610a3e576040517f08c379a0000000000000000000000000000000000000000000000000000000008152600401610a359061253d565b60405180910390fd5b600080600190505b600280549050811015610ac3578160028281548110610a6857610a67611f05565b5b9060005260206000209060030201600101541115610ab05760028181548110610a9457610a93611f05565b5b9060005260206000209060030201600101549150806003819055505b8080610abb90611f63565b915050610a46565b5060056000806101000a81548160ff02191690836005811115610ae957610ae8611c3d565b5b02179055507f0a97a4ee45751e2abf3e4fc8946939630b11b371ea8ae39ccdc3056e98f5cc3f60046005604051610b2192919061255d565b60405180910390a150565b600060019054906101000a900473ffffffffffffffffffffffffffffffffffffffff1673ffffffffffffffffffffffffffffffffffffffff163373ffffffffffffffffffffffffffffffffffffffff1614610bbc576040517f08c379a0000000000000000000000000000000000000000000000000000000008152600401610bb3906124ab565b60405180910390fd5b60006005811115610bd057610bcf611c3d565b5b60008054906101000a900460ff166005811115610bf057610bef611c3d565b5b14610c30576040517f08c379a0000000000000000000000000000000000000000000000000000000008152600401610c27906125f8565b60405180910390fd5b600160008273ffffffffffffffffffffffffffffffffffffffff1673ffffffffffffffffffffffffffffffffffffffff16815260200190815260200160002060000160009054906101000a900460ff1615610cc0576040517f08c379a0000000000000000000000000000000000000000000000000000000008152600401610cb79061268a565b60405180910390fd5b60018060008373ffffffffffffffffffffffffffffffffffffffff1673ffffffffffffffffffffffffffffffffffffffff16815260200190815260200160002060000160006101000a81548160ff02191690831515021790555060046000815480929190610d2d90611f63565b91905055507fb6be2187d059cc2a55fe29e0e503b566e1e0f8c8780096e185429350acffd3dd81604051610d619190611c22565b60405180910390a150565b60045481565b600060019054906101000a900473ffffffffffffffffffffffffffffffffffffffff1673ffffffffffffffffffffffffffffffffffffffff163373ffffffffffffffffffffffffffffffffffffffff1614610e02576040517f08c379a0000000000000000000000000000000000000000000000000000000008152600401610df9906124ab565b60405180910390fd5b60016005811115610e1657610e15611c3d565b5b60008054906101000a900460ff166005811115610e3657610e35611c3d565b5b14610e76576040517f08c379a0000000000000000000000000000000000000000000000000000000008152600401610e6d9061271c565b60405180910390fd5b60026000806101000a81548160ff02191690836005811115610e9b57610e9a611c3d565b5b02179055507f0a97a4ee45751e2abf3e4fc8946939630b11b371ea8ae39ccdc3056e98f5cc3f60016002604051610ed392919061255d565b60405180910390a1565b600060019054906101000a900473ffffffffffffffffffffffffffffffffffffffff1673ffffffffffffffffffffffffffffffffffffffff163373ffffffffffffffffffffffffffffffffffffffff1614610f6d576040517f08c379a0000000000000000000000000000000000000000000000000000000008152600401610f64906124ab565b60405180910390fd5b600580811115610f8057610f7f611c3d565b5b60008054906101000a900460ff166005811115610fa057610f9f611c3d565b5b14610fe0576040517f08c379a0000000000000000000000000000000000000000000000000000000008152600401610fd7906127ae565b60405180910390fd5b60008060006101000a81548160ff0219169083600581111561100557611004611c3d565b5b021790555060026000611018919061189a565b6002604051806060016040528060405180602001604052806000815250815260200160008152602001600073ffffffffffffffffffffffffffffffffffffffff168152509080600181540180825580915050600190039060005260206000209060030201600090919091909150600082015181600001908161109a9190612333565b506020820151816001015560408201518160020160006101000a81548173ffffffffffffffffffffffffffffffffffffffff021916908373ffffffffffffffffffffffffffffffffffffffff160217905550505060006003819055507f0a97a4ee45751e2abf3e4fc8946939630b11b371ea8ae39ccdc3056e98f5cc3f6005600060405161112992919061255d565b60405180910390a1565b600060019054906101000a900473ffffffffffffffffffffffffffffffffffffffff1681565b6000600160028054905061116d9190612405565b905090565b60008054906101000a900460ff1681565b60016020528060005260406000206000915090508060000160009054906101000a900460ff16908060000160019054906101000a900460ff16908060010154908060020160009054906101000a900460ff16905084565b60606000806005808111156111f2576111f1611c3d565b5b60008054906101000a900460ff16600581111561121257611211611c3d565b5b14611252576040517f08c379a000000000000000000000000000000000000000000000000000000000815260040161124990612840565b60405180910390fd5b60026003548154811061126857611267611f05565b5b906000526020600020906003020160000160026003548154811061128f5761128e611f05565b5b9060005260206000209060030201600101546002600354815481106112b7576112b6611f05565b5b906000526020600020906003020160020160009054906101000a900473ffffffffffffffffffffffffffffffffffffffff168280546112f590612003565b80601f016020809104026020016040519081016040528092919081815260200182805461132190612003565b801561136e5780601f106113435761010080835404028352916020019161136e565b820191906000526020600020905b81548152906001019060200180831161135157829003601f168201915b50505050509250925092509250909192565b600060019054906101000a900473ffffffffffffffffffffffffffffffffffffffff1673ffffffffffffffffffffffffffffffffffffffff163373ffffffffffffffffffffffffffffffffffffffff1614611410576040517f08c379a0000000000000000000000000000000000000000000000000000000008152600401611407906124ab565b60405180910390fd5b6003600581111561142457611423611c3d565b5b60008054906101000a900460ff16600581111561144457611443611c3d565b5b14611484576040517f08c379a000000000000000000000000000000000000000000000000000000000815260040161147b906128ac565b60405180910390fd5b60046000806101000a81548160ff021916908360058111156114a9576114a8611c3d565b5b02179055507f0a97a4ee45751e2abf3e4fc8946939630b11b371ea8ae39ccdc3056e98f5cc3f600360046040516114e192919061255d565b60405180910390a1565b60035481565b600060019054906101000a900473ffffffffffffffffffffffffffffffffffffffff1673ffffffffffffffffffffffffffffffffffffffff163373ffffffffffffffffffffffffffffffffffffffff1614611581576040517f08c379a0000000000000000000000000000000000000000000000000000000008152600401611578906124ab565b60405180910390fd5b6000600581111561159557611594611c3d565b5b60008054906101000a900460ff1660058111156115b5576115b4611c3d565b5b146115f5576040517f08c379a00000000000000000000000000000000000000000000000000000000081526004016115ec9061293e565b60405180910390fd5b6002600454101561163b576040517f08c379a0000000000000000000000000000000000000000000000000000000008152600401611632906129d0565b60405180910390fd5b60016000806101000a81548160ff021916908360058111156116605761165f611c3d565b5b02179055507f0a97a4ee45751e2abf3e4fc8946939630b11b371ea8ae39ccdc3056e98f5cc3f6000600160405161169892919061255d565b60405180910390a1565b600060019054906101000a900473ffffffffffffffffffffffffffffffffffffffff1673ffffffffffffffffffffffffffffffffffffffff163373ffffffffffffffffffffffffffffffffffffffff1614611732576040517f08c379a0000000000000000000000000000000000000000000000000000000008152600401611729906124ab565b60405180910390fd5b6002600581111561174657611745611c3d565b5b60008054906101000a900460ff16600581111561176657611765611c3d565b5b146117a6576040517f08c379a000000000000000000000000000000000000000000000000000000000815260040161179d90612a3c565b60405180910390fd5b60028080549050116117ed576040517f08c379a00000000000000000000000000000000000000000000000000000000081526004016117e490612ace565b60405180910390fd5b60026004541015611833576040517f08c379a000000000000000000000000000000000000000000000000000000000815260040161182a90612b60565b60405180910390fd5b60036000806101000a81548160ff0219169083600581111561185857611857611c3d565b5b02179055507f0a97a4ee45751e2abf3e4fc8946939630b11b371ea8ae39ccdc3056e98f5cc3f6002600360405161189092919061255d565b60405180910390a1565b50805460008255600302906000526020600020908101906118bb91906118be565b50565b5b8082111561191057600080820160006118d89190611914565b60018201600090556002820160006101000a81549073ffffffffffffffffffffffffffffffffffffffff0219169055506003016118bf565b5090565b50805461192090612003565b6000825580601f106119325750611951565b601f0160209004906000526020600020908101906119509190611954565b5b50565b5b8082111561196d576000816000905550600101611955565b5090565b600080fd5b600080fd5b6000819050919050565b61198e8161197b565b811461199957600080fd5b50565b6000813590506119ab81611985565b92915050565b6000602082840312156119c7576119c6611971565b5b60006119d58482850161199c565b91505092915050565b600081519050919050565b600082825260208201905092915050565b60005b83811015611a185780820151818401526020810190506119fd565b60008484015250505050565b6000601f19601f8301169050919050565b6000611a40826119de565b611a4a81856119e9565b9350611a5a8185602086016119fa565b611a6381611a24565b840191505092915050565b611a778161197b565b82525050565b600073ffffffffffffffffffffffffffffffffffffffff82169050919050565b6000611aa882611a7d565b9050919050565b611ab881611a9d565b82525050565b60006060820190508181036000830152611ad88186611a35565b9050611ae76020830185611a6e565b611af46040830184611aaf565b949350505050565b600080fd5b600080fd5b600080fd5b60008083601f840112611b2157611b20611afc565b5b8235905067ffffffffffffffff811115611b3e57611b3d611b01565b5b602083019150836001820283011115611b5a57611b59611b06565b5b9250929050565b60008060208385031215611b7857611b77611971565b5b600083013567ffffffffffffffff811115611b9657611b95611976565b5b611ba285828601611b0b565b92509250509250929050565b611bb781611a9d565b8114611bc257600080fd5b50565b600081359050611bd481611bae565b92915050565b600060208284031215611bf057611bef611971565b5b6000611bfe84828501611bc5565b91505092915050565b6000602082019050611c1c6000830184611a6e565b92915050565b6000602082019050611c376000830184611aaf565b92915050565b7f4e487b7100000000000000000000000000000000000000000000000000000000600052602160045260246000fd5b60068110611c7d57611c7c611c3d565b5b50565b6000819050611c8e82611c6c565b919050565b6000611c9e82611c80565b9050919050565b611cae81611c93565b82525050565b6000602082019050611cc96000830184611ca5565b92915050565b60008115159050919050565b611ce481611ccf565b82525050565b6000608082019050611cff6000830187611cdb565b611d0c6020830186611cdb565b611d196040830185611a6e565b611d266060830184611cdb565b95945050505050565b7f542765732070617320696e736372697420636f6d6d6520766f74616e742c207360008201527f6f72727921000000000000000000000000000000000000000000000000000000602082015250565b6000611d8b6025836119e9565b9150611d9682611d2f565b604082019050919050565b60006020820190508181036000830152611dba81611d7e565b9050919050565b7f432765737420706173206c65206d6f6d656e7420646520766f74657221000000600082015250565b6000611df7601d836119e9565b9150611e0282611dc1565b602082019050919050565b60006020820190508181036000830152611e2681611dea565b9050919050565b7f542761732064656a6120766f74652c2070617320646520747269636865210000600082015250565b6000611e63601e836119e9565b9150611e6e82611e2d565b602082019050919050565b60006020820190508181036000830152611e9281611e56565b9050919050565b7f43657474652070726f706f736974696f6e206e27657869737465207061732100600082015250565b6000611ecf601f836119e9565b9150611eda82611e99565b602082019050919050565b60006020820190508181036000830152611efe81611ec2565b9050919050565b7f4e487b7100000000000000000000000000000000000000000000000000000000600052603260045260246000fd5b7f4e487b7100000000000000000000000000000000000000000000000000000000600052601160045260246000fd5b6000611f6e8261197b565b91507fffffffffffffffffffffffffffffffffffffffffffffffffffffffffffffffff8203611fa057611f9f611f34565b5b600182019050919050565b6000604082019050611fc06000830185611aaf565b611fcd6020830184611a6e565b9392505050565b7f4e487b7100000000000000000000000000000000000000000000000000000000600052602260045260246000fd5b6000600282049050600182168061201b57607f821691505b60208210810361202e5761202d611fd4565b5b50919050565b7f432765737420706173206c65206d6f6d656e742064652070726f706f7365722060008201527f6465732074727563732100000000000000000000000000000000000000000000602082015250565b6000612090602a836119e9565b915061209b82612034565b604082019050919050565b600060208201905081810360008301526120bf81612083565b9050919050565b7f46617574206175206d6f696e7320656372697265207175656c7175652063686f60008201527f73652c206e6f6e3f000000000000000000000000000000000000000000000000602082015250565b60006121226028836119e9565b915061212d826120c6565b604082019050919050565b6000602082019050818103600083015261215181612115565b9050919050565b7f4e487b7100000000000000000000000000000000000000000000000000000000600052604160045260246000fd5b60008190508160005260206000209050919050565b60006020601f8301049050919050565b600082821b905092915050565b6000600883026121e97fffffffffffffffffffffffffffffffffffffffffffffffffffffffffffffffff826121ac565b6121f386836121ac565b95508019841693508086168417925050509392505050565b6000819050919050565b600061223061222b6122268461197b565b61220b565b61197b565b9050919050565b6000819050919050565b61224a83612215565b61225e61225682612237565b8484546121b9565b825550505050565b600090565b612273612266565b61227e818484612241565b505050565b5b818110156122a25761229760008261226b565b600181019050612284565b5050565b601f8211156122e7576122b881612187565b6122c18461219c565b810160208510156122d0578190505b6122e46122dc8561219c565b830182612283565b50505b505050565b600082821c905092915050565b600061230a600019846008026122ec565b1980831691505092915050565b600061232383836122f9565b9150826002028217905092915050565b61233c826119de565b67ffffffffffffffff81111561235557612354612158565b5b61235f8254612003565b61236a8282856122a6565b600060209050601f83116001811461239d576000841561238b578287015190505b6123958582612317565b8655506123fd565b601f1984166123ab86612187565b60005b828110156123d3578489015182556001820191506020850194506020810190506123ae565b868310156123f057848901516123ec601f8916826122f9565b8355505b6001600288020188555050505b505050505050565b60006124108261197b565b915061241b8361197b565b925082820390508181111561243357612432611f34565b5b92915050565b7f5427657320706173206c6520626f73732c20696c20666175742071756520747560008201527f20736f69732061646d696e210000000000000000000000000000000000000000602082015250565b6000612495602c836119e9565b91506124a082612439565b604082019050919050565b600060208201905081810360008301526124c481612488565b9050919050565b7f417474656e64732071756520746f7574206c65206d6f6e64652061697420666960008201527f6e6920646520766f746572210000000000000000000000000000000000000000602082015250565b6000612527602c836119e9565b9150612532826124cb565b604082019050919050565b600060208201905081810360008301526125568161251a565b9050919050565b60006040820190506125726000830185611ca5565b61257f6020830184611ca5565b9392505050565b7f54726f70207461726420706f757220616a6f757465722064657320766f74616e60008201527f7473210000000000000000000000000000000000000000000000000000000000602082015250565b60006125e26023836119e9565b91506125ed82612586565b604082019050919050565b60006020820190508181036000830152612611816125d5565b9050919050565b7f43652067617273206573742064656a6120696e73637269742c2074276573206460008201527f697374726169743f000000000000000000000000000000000000000000000000602082015250565b60006126746028836119e9565b915061267f82612618565b604082019050919050565b600060208201905081810360008301526126a381612667565b9050919050565b7f4661757420642761626f72642064656d6172726572206c61207068617365206460008201527f652070726f706f736974696f6e73210000000000000000000000000000000000602082015250565b6000612706602f836119e9565b9150612711826126aa565b604082019050919050565b60006020820190508181036000830152612735816126f9565b9050919050565b7f4c6520766f7465206e276573742070617320656e636f7265207465726d696e6560008201527f2100000000000000000000000000000000000000000000000000000000000000602082015250565b60006127986021836119e9565b91506127a38261273c565b604082019050919050565b600060208201905081810360008301526127c78161278b565b9050919050565b7f50617469656e63652c206f6e206e27612070617320656e636f726520636f6d7060008201527f7465210000000000000000000000000000000000000000000000000000000000602082015250565b600061282a6023836119e9565b9150612835826127ce565b604082019050919050565b600060208201905081810360008301526128598161281d565b9050919050565b7f4661757420642761626f726420636f6d6d656e636572206c6520766f74652100600082015250565b6000612896601f836119e9565b91506128a182612860565b602082019050919050565b600060208201905081810360008301526128c581612889565b9050919050565b7f4f6e206e27657374207061732061206c6120626f6e6e652065746170652c206660008201527f6175742073756976726521000000000000000000000000000000000000000000602082015250565b6000612928602b836119e9565b9150612933826128cc565b604082019050919050565b600060208201905081810360008301526129578161291b565b9050919050565b7f496c2066617574206175206d6f696e73203220766f74616e747320706f75722060008201527f636f6d6d656e636572206c65732070726f706f736974696f6e73210000000000602082015250565b60006129ba603b836119e9565b91506129c58261295e565b604082019050919050565b600060208201905081810360008301526129e9816129ad565b9050919050565b7f4f6e206e276573742070617320707265747320706f757220766f746572210000600082015250565b6000612a26601e836119e9565b9150612a31826129f0565b602082019050919050565b60006020820190508181036000830152612a5581612a19565b9050919050565b7f496c2066617574206175206d6f696e7320322070726f706f736974696f6e732060008201527f706f757220636f6d6d656e636572206c6520766f746521000000000000000000602082015250565b6000612ab86037836119e9565b9150612ac382612a5c565b604082019050919050565b60006020820190508181036000830152612ae781612aab565b9050919050565b7f496c2066617574206175206d6f696e73203220766f74616e747320706f75722060008201527f636f6d6d656e636572206c6520766f7465210000000000000000000000000000602082015250565b6000612b4a6032836119e9565b9150612b5582612aee565b604082019050919050565b60006020820190508181036000830152612b7981612b3d565b905091905056fea2646970667358221220b5fe0677f3feb6eb97025ce97a5a68ad74f5188a197a55bcc7b5157df158d62364736f6c63430008140033",
  "linkReferences": {},
  "deployedLinkReferences": {}
}