{
  "_format": "hh-sol-artifact-1",
  "contractName": "Voting",
  "sourceName": "contracts/Voting.sol",
  "abi": [
    {
      "inputs": [],
      "stateMutability": "nonpayable",
      "type": "constructor"
    },
    {
      "anonymous": false,
      "inputs": [
        {
          "indexed": false,
          "internalType": "uint256",
          "name": "proposalId",
          "type": "uint256"
        }
      ],
      "name": "ProposalRegistered",
      "type": "event"
    },
    {
      "anonymous": false,
      "inputs": [
        {
          "indexed": false,
          "internalType": "address",
          "name": "voter",
          "type": "address"
        },
        {
          "indexed": false,
          "internalType": "uint256",
          "name": "proposalId",
          "type": "uint256"
        }
      ],
      "name": "Voted",
      "type": "event"
    },
    {
      "anonymous": false,
      "inputs": [
        {
          "indexed": false,
          "internalType": "address",
          "name": "voterAddress",
          "type": "address"
        }
      ],
      "name": "VoterRegistered",
      "type": "event"
    },
    {
      "anonymous": false,
      "inputs": [
        {
          "indexed": false,
          "internalType": "enum Voting.WorkflowStatus",
          "name": "previousStatus",
          "type": "uint8"
        },
        {
          "indexed": false,
          "internalType": "enum Voting.WorkflowStatus",
          "name": "newStatus",
          "type": "uint8"
        }
      ],
      "name": "WorkflowStatusChange",
      "type": "event"
    },
    {
      "inputs": [],
      "name": "endProposalsRegistration",
      "outputs": [],
      "stateMutability": "nonpayable",
      "type": "function"
    },
    {
      "inputs": [],
      "name": "endVotingSession",
      "outputs": [],
      "stateMutability": "nonpayable",
      "type": "function"
    },
    {
      "inputs": [],
      "name": "getProposalsCount",
      "outputs": [
        {
          "internalType": "uint256",
          "name": "",
          "type": "uint256"
        }
      ],
      "stateMutability": "view",
      "type": "function"
    },
    {
      "inputs": [],
      "name": "getWinningProposal",
      "outputs": [
        {
          "internalType": "string",
          "name": "description",
          "type": "string"
        },
        {
          "internalType": "uint256",
          "name": "voteCount",
          "type": "uint256"
        },
        {
          "internalType": "address",
          "name": "proposer",
          "type": "address"
        }
      ],
      "stateMutability": "view",
      "type": "function"
    },
    {
      "inputs": [],
      "name": "owner",
      "outputs": [
        {
          "internalType": "address",
          "name": "",
          "type": "address"
        }
      ],
      "stateMutability": "view",
      "type": "function"
    },
    {
      "inputs": [
        {
          "internalType": "uint256",
          "name": "",
          "type": "uint256"
        }
      ],
      "name": "proposals",
      "outputs": [
        {
          "internalType": "string",
          "name": "description",
          "type": "string"
        },
        {
          "internalType": "uint256",
          "name": "voteCount",
          "type": "uint256"
        },
        {
          "internalType": "address",
          "name": "proposer",
          "type": "address"
        }
      ],
      "stateMutability": "view",
      "type": "function"
    },
    {
      "inputs": [
        {
          "internalType": "string",
          "name": "_description",
          "type": "string"
        }
      ],
      "name": "registerProposal",
      "outputs": [],
      "stateMutability": "nonpayable",
      "type": "function"
    },
    {
      "inputs": [
        {
          "internalType": "address",
          "name": "_voter",
          "type": "address"
        }
      ],
      "name": "registerVoter",
      "outputs": [],
      "stateMutability": "nonpayable",
      "type": "function"
    },
    {
      "inputs": [],
      "name": "resetVoting",
      "outputs": [],
      "stateMutability": "nonpayable",
      "type": "function"
    },
    {
      "inputs": [],
      "name": "startProposalsRegistration",
      "outputs": [],
      "stateMutability": "nonpayable",
      "type": "function"
    },
    {
      "inputs": [],
      "name": "startVotingSession",
      "outputs": [],
      "stateMutability": "nonpayable",
      "type": "function"
    },
    {
      "inputs": [],
      "name": "tallyVotes",
      "outputs": [],
      "stateMutability": "nonpayable",
      "type": "function"
    },
    {
      "inputs": [
        {
          "internalType": "uint256",
          "name": "_proposalId",
          "type": "uint256"
        }
      ],
      "name": "vote",
      "outputs": [],
      "stateMutability": "nonpayable",
      "type": "function"
    },
    {
      "inputs": [],
      "name": "voterCount",
      "outputs": [
        {
          "internalType": "uint256",
          "name": "",
          "type": "uint256"
        }
      ],
      "stateMutability": "view",
      "type": "function"
    },
    {
      "inputs": [
        {
          "internalType": "address",
          "name": "",
          "type": "address"
        }
      ],
      "name": "voters",
      "outputs": [
        {
          "internalType": "bool",
          "name": "isRegistered",
          "type": "bool"
        },
        {
          "internalType": "bool",
          "name": "hasVoted",
          "type": "bool"
        },
        {
          "internalType": "uint256",
          "name": "votedProposalId",
          "type": "uint256"
        },
        {
          "internalType": "bool",
          "name": "hasProposed",
          "type": "bool"
        }
      ],
      "stateMutability": "view",
      "type": "function"
    },
    {
      "inputs": [],
      "name": "winningProposalId",
      "outputs": [
        {
          "internalType": "uint256",
          "name": "",
          "type": "uint256"
        }
      ],
      "stateMutability": "view",
      "type": "function"
    },
    {
      "inputs": [],
      "name": "workflowStatus",
      "outputs": [
        {
          "internalType": "enum Voting.WorkflowStatus",
          "name": "",
          "type": "uint8"
        }
      ],
      "stateMutability": "view",
      "type": "function"
    }
  ],
  "bytecode": "0x60806040523480156200001157600080fd5b5033600060016101000a81548173ffffffffffffffffffffffffffffffffffffffff021916908373ffffffffffffffffffffffffffffffffffffffff16021790555060008060006101000a81548160ff021916908360058111156200007b576200007a6200015e565b5b02179055506002604051806060016040528060405180602001604052806000815250815260200160008152602001600073ffffffffffffffffffffffffffffffffffffffff168152509080600181540180825580915050600190039060005260206000209060030201600090919091909150600082015181600001908162000104919062000407565b506020820151816001015560408201518160020160006101000a81548173ffffffffffffffffffffffffffffffffffffffff021916908373ffffffffffffffffffffffffffffffffffffffff1602179055505050620004ee565b7f4e487b7100000000000000000000000000000000000000000000000000000000600052602160045260246000fd5b600081519050919050565b7f4e487b7100000000000000000000000000000000000000000000000000000000600052604160045260246000fd5b7f4e487b7100000000000000000000000000000000000000000000000000000000600052602260045260246000fd5b600060028204905060018216806200020f57607f821691505b602082108103620002255762000224620001c7565b5b50919050565b60008190508160005260206000209050919050565b60006020601f8301049050919050565b600082821b905092915050565b6000600883026200028f7fffffffffffffffffffffffffffffffffffffffffffffffffffffffffffffffff8262000250565b6200029b868362000250565b95508019841693508086168417925050509392505050565b6000819050919050565b6000819050919050565b6000620002e8620002e2620002dc84620002b3565b620002bd565b620002b3565b9050919050565b6000819050919050565b6200030483620002c7565b6200031c6200031382620002ef565b8484546200025d565b825550505050565b600090565b6200033362000324565b62000340818484620002f9565b505050565b5b8181101562000368576200035c60008262000329565b60018101905062000346565b5050565b601f821115620003b75762000381816200022b565b6200038c8462000240565b810160208510156200039c578190505b620003b4620003ab8562000240565b83018262000345565b50505b505050565b600082821c905092915050565b6000620003dc60001984600802620003bc565b1980831691505092915050565b6000620003f78383620003c9565b9150826002028217905092915050565b62000412826200018d565b67ffffffffffffffff8111156200042e576200042d62000198565b5b6200043a8254620001f6565b620004478282856200036c565b600060209050601f8311600181146200047f57600084156200046a578287015190505b620004768582620003e9565b865550620004e6565b601f1984166200048f866200022b565b60005b82811015620004b95784890151825560018201915060208501945060208101905062000492565b86831015620004d95784890151620004d5601f891682620003c9565b8355505b6001600288020188555050505b505050505050565b612bbe80620004fe6000396000f3fe608060405234801561001057600080fd5b506004361061010b5760003560e01c80638da5cb5b116100a2578063a513462011610071578063a51346201461025f578063a7bfab161461027f578063c64963c514610289578063e09b8c79146102a7578063ee74c678146102b15761010b565b80638da5cb5b146101d257806398e527d3146101f0578063a1edffa21461020e578063a3ec138d1461022c5761010b565b806338db6dd3116100de57806338db6dd31461018457806342169e48146101a05780636c297445146101be578063856e698c146101c85761010b565b80630121b93f14610110578063013cf08b1461012c5780632f95355b1461015e578063378a21781461017a575b600080fd5b61012a600480360381019061012591906119b9565b6102bb565b005b610146600480360381019061014191906119b9565b6105b9565b60405161015593929190611ac6565b60405180910390f35b61017860048036038101906101739190611b69565b61069b565b005b61018261093a565b005b61019e60048036038101906101999190611be2565b610b2c565b005b6101a8610d6c565b6040516101b59190611c0f565b60405180910390f35b6101c6610d72565b005b6101d0610edd565b005b6101da61113b565b6040516101e79190611c2a565b60405180910390f35b6101f8611161565b6040516102059190611c0f565b60405180910390f35b61021661117a565b6040516102239190611cbc565b60405180910390f35b61024660048036038101906102419190611be2565b61118b565b6040516102569493929190611cf2565b60405180910390f35b6102676111e2565b60405161027693929190611ac6565b60405180910390f35b610287611388565b005b6102916114f3565b60405161029e9190611c0f565b60405180910390f35b6102af6114f9565b005b6102b96116aa565b005b600160003373ffffffffffffffffffffffffffffffffffffffff1673ffffffffffffffffffffffffffffffffffffffff16815260200190815260200160002060000160009054906101000a900460ff1661034a576040517f08c379a000000000000000000000000000000000000000000000000000000000815260040161034190611da9565b60405180910390fd5b6003600581111561035e5761035d611c45565b5b60008054906101000a900460ff16600581111561037e5761037d611c45565b5b146103be576040517f08c379a00000000000000000000000000000000000000000000000000000000081526004016103b590611e15565b60405180910390fd5b600160003373ffffffffffffffffffffffffffffffffffffffff1673ffffffffffffffffffffffffffffffffffffffff16815260200190815260200160002060000160019054906101000a900460ff161561044e576040517f08c379a000000000000000000000000000000000000000000000000000000000815260040161044590611e81565b60405180910390fd5b600081118015610462575060028054905081105b6104a1576040517f08c379a000000000000000000000000000000000000000000000000000000000815260040161049890611eed565b60405180910390fd5b60018060003373ffffffffffffffffffffffffffffffffffffffff1673ffffffffffffffffffffffffffffffffffffffff16815260200190815260200160002060000160016101000a81548160ff02191690831515021790555080600160003373ffffffffffffffffffffffffffffffffffffffff1673ffffffffffffffffffffffffffffffffffffffff168152602001908152602001600020600101819055506002818154811061055657610555611f0d565b5b9060005260206000209060030201600101600081548092919061057890611f6b565b91905055507f4d99b957a2bc29a30ebd96a7be8e68fe50a3c701db28a91436490b7d53870ca433826040516105ae929190611fb3565b60405180910390a150565b600281815481106105c957600080fd5b90600052602060002090600302016000915090508060000180546105ec9061200b565b80601f01602080910402602001604051908101604052809291908181526020018280546106189061200b565b80156106655780601f1061063a57610100808354040283529160200191610665565b820191906000526020600020905b81548152906001019060200180831161064857829003601f168201915b5050505050908060010154908060020160009054906101000a900473ffffffffffffffffffffffffffffffffffffffff16905083565b600160003373ffffffffffffffffffffffffffffffffffffffff1673ffffffffffffffffffffffffffffffffffffffff16815260200190815260200160002060000160009054906101000a900460ff1661072a576040517f08c379a000000000000000000000000000000000000000000000000000000000815260040161072190611da9565b60405180910390fd5b6001600581111561073e5761073d611c45565b5b60008054906101000a900460ff16600581111561075e5761075d611c45565b5b1461079e576040517f08c379a0000000000000000000000000000000000000000000000000000000008152600401610795906120ae565b60405180910390fd5b600082829050116107e4576040517f08c379a00000000000000000000000000000000000000000000000000000000081526004016107db90612140565b60405180910390fd5b6002604051806060016040528084848080601f016020809104026020016040519081016040528093929190818152602001838380828437600081840152601f19601f820116905080830192505050505050508152602001600081526020013373ffffffffffffffffffffffffffffffffffffffff168152509080600181540180825580915050600190039060005260206000209060030201600090919091909150600082015181600001908161089a919061233b565b506020820151816001015560408201518160020160006101000a81548173ffffffffffffffffffffffffffffffffffffffff021916908373ffffffffffffffffffffffffffffffffffffffff16021790555050507f92e393e9b54e2f801d3ea4beb0c5e71a21cc34a5d34b77d0fb8a3aa1650dc18f6001600280549050610921919061240d565b60405161092e9190611c0f565b60405180910390a15050565b600060019054906101000a900473ffffffffffffffffffffffffffffffffffffffff1673ffffffffffffffffffffffffffffffffffffffff163373ffffffffffffffffffffffffffffffffffffffff16146109ca576040517f08c379a00000000000000000000000000000000000000000000000000000000081526004016109c1906124b3565b60405180910390fd5b600460058111156109de576109dd611c45565b5b60008054906101000a900460ff1660058111156109fe576109fd611c45565b5b14610a3e576040517f08c379a0000000000000000000000000000000000000000000000000000000008152600401610a3590612545565b60405180910390fd5b600080600190505b600280549050811015610ac3578160028281548110610a6857610a67611f0d565b5b9060005260206000209060030201600101541115610ab05760028181548110610a9457610a93611f0d565b5b9060005260206000209060030201600101549150806003819055505b8080610abb90611f6b565b915050610a46565b5060056000806101000a81548160ff02191690836005811115610ae957610ae8611c45565b5b02179055507f0a97a4ee45751e2abf3e4fc8946939630b11b371ea8ae39ccdc3056e98f5cc3f60046005604051610b21929190612565565b60405180910390a150565b600060019054906101000a900473ffffffffffffffffffffffffffffffffffffffff1673ffffffffffffffffffffffffffffffffffffffff163373ffffffffffffffffffffffffffffffffffffffff1614610bbc576040517f08c379a0000000000000000000000000000000000000000000000000000000008152600401610bb3906124b3565b60405180910390fd5b60006005811115610bd057610bcf611c45565b5b60008054906101000a900460ff166005811115610bf057610bef611c45565b5b14610c30576040517f08c379a0000000000000000000000000000000000000000000000000000000008152600401610c2790612600565b60405180910390fd5b600160008273ffffffffffffffffffffffffffffffffffffffff1673ffffffffffffffffffffffffffffffffffffffff16815260200190815260200160002060000160009054906101000a900460ff1615610cc0576040517f08c379a0000000000000000000000000000000000000000000000000000000008152600401610cb790612692565b60405180910390fd5b60018060008373ffffffffffffffffffffffffffffffffffffffff1673ffffffffffffffffffffffffffffffffffffffff16815260200190815260200160002060000160006101000a81548160ff02191690831515021790555060046000815480929190610d2d90611f6b565b91905055507fb6be2187d059cc2a55fe29e0e503b566e1e0f8c8780096e185429350acffd3dd81604051610d619190611c2a565b60405180910390a150565b60045481565b600060019054906101000a900473ffffffffffffffffffffffffffffffffffffffff1673ffffffffffffffffffffffffffffffffffffffff163373ffffffffffffffffffffffffffffffffffffffff1614610e02576040517f08c379a0000000000000000000000000000000000000000000000000000000008152600401610df9906124b3565b60405180910390fd5b60016005811115610e1657610e15611c45565b5b60008054906101000a900460ff166005811115610e3657610e35611c45565b5b14610e76576040517f08c379a0000000000000000000000000000000000000000000000000000000008152600401610e6d90612724565b60405180910390fd5b60026000806101000a81548160ff02191690836005811115610e9b57610e9a611c45565b5b02179055507f0a97a4ee45751e2abf3e4fc8946939630b11b371ea8ae39ccdc3056e98f5cc3f60016002604051610ed3929190612565565b60405180910390a1565b600060019054906101000a900473ffffffffffffffffffffffffffffffffffffffff1673ffffffffffffffffffffffffffffffffffffffff163373ffffffffffffffffffffffffffffffffffffffff1614610f6d576040517f08c379a0000000000000000000000000000000000000000000000000000000008152600401610f64906124b3565b60405180910390fd5b600580811115610f8057610f7f611c45565b5b60008054906101000a900460ff166005811115610fa057610f9f611c45565b5b14610fe0576040517f08c379a0000000000000000000000000000000000000000000000000000000008152600401610fd7906127b6565b60405180910390fd5b60008060006101000a81548160ff0219169083600581111561100557611004611c45565b5b02179055506002600061101891906118a2565b6002604051806060016040528060405180602001604052806000815250815260200160008152602001600073ffffffffffffffffffffffffffffffffffffffff168152509080600181540180825580915050600190039060005260206000209060030201600090919091909150600082015181600001908161109a919061233b565b506020820151816001015560408201518160020160006101000a81548173ffffffffffffffffffffffffffffffffffffffff021916908373ffffffffffffffffffffffffffffffffffffffff1602179055505050600060038190555060006004819055507f0a97a4ee45751e2abf3e4fc8946939630b11b371ea8ae39ccdc3056e98f5cc3f60056000604051611131929190612565565b60405180910390a1565b600060019054906101000a900473ffffffffffffffffffffffffffffffffffffffff1681565b60006001600280549050611175919061240d565b905090565b60008054906101000a900460ff1681565b60016020528060005260406000206000915090508060000160009054906101000a900460ff16908060000160019054906101000a900460ff16908060010154908060020160009054906101000a900460ff16905084565b60606000806005808111156111fa576111f9611c45565b5b60008054906101000a900460ff16600581111561121a57611219611c45565b5b1461125a576040517f08c379a000000000000000000000000000000000000000000000000000000000815260040161125190612848565b60405180910390fd5b6002600354815481106112705761126f611f0d565b5b906000526020600020906003020160000160026003548154811061129757611296611f0d565b5b9060005260206000209060030201600101546002600354815481106112bf576112be611f0d565b5b906000526020600020906003020160020160009054906101000a900473ffffffffffffffffffffffffffffffffffffffff168280546112fd9061200b565b80601f01602080910402602001604051908101604052809291908181526020018280546113299061200b565b80156113765780601f1061134b57610100808354040283529160200191611376565b820191906000526020600020905b81548152906001019060200180831161135957829003601f168201915b50505050509250925092509250909192565b600060019054906101000a900473ffffffffffffffffffffffffffffffffffffffff1673ffffffffffffffffffffffffffffffffffffffff163373ffffffffffffffffffffffffffffffffffffffff1614611418576040517f08c379a000000000000000000000000000000000000000000000000000000000815260040161140f906124b3565b60405180910390fd5b6003600581111561142c5761142b611c45565b5b60008054906101000a900460ff16600581111561144c5761144b611c45565b5b1461148c576040517f08c379a0000000000000000000000000000000000000000000000000000000008152600401611483906128b4565b60405180910390fd5b60046000806101000a81548160ff021916908360058111156114b1576114b0611c45565b5b02179055507f0a97a4ee45751e2abf3e4fc8946939630b11b371ea8ae39ccdc3056e98f5cc3f600360046040516114e9929190612565565b60405180910390a1565b60035481565b600060019054906101000a900473ffffffffffffffffffffffffffffffffffffffff1673ffffffffffffffffffffffffffffffffffffffff163373ffffffffffffffffffffffffffffffffffffffff1614611589576040517f08c379a0000000000000000000000000000000000000000000000000000000008152600401611580906124b3565b60405180910390fd5b6000600581111561159d5761159c611c45565b5b60008054906101000a900460ff1660058111156115bd576115bc611c45565b5b146115fd576040517f08c379a00000000000000000000000000000000000000000000000000000000081526004016115f490612946565b60405180910390fd5b60026004541015611643576040517f08c379a000000000000000000000000000000000000000000000000000000000815260040161163a906129d8565b60405180910390fd5b60016000806101000a81548160ff0219169083600581111561166857611667611c45565b5b02179055507f0a97a4ee45751e2abf3e4fc8946939630b11b371ea8ae39ccdc3056e98f5cc3f600060016040516116a0929190612565565b60405180910390a1565b600060019054906101000a900473ffffffffffffffffffffffffffffffffffffffff1673ffffffffffffffffffffffffffffffffffffffff163373ffffffffffffffffffffffffffffffffffffffff161461173a576040517f08c379a0000000000000000000000000000000000000000000000000000000008152600401611731906124b3565b60405180910390fd5b6002600581111561174e5761174d611c45565b5b60008054906101000a900460ff16600581111561176e5761176d611c45565b5b146117ae576040517f08c379a00000000000000000000000000000000000000000000000000000000081526004016117a590612a44565b60405180910390fd5b60028080549050116117f5576040517f08c379a00000000000000000000000000000000000000000000000000000000081526004016117ec90612ad6565b60405180910390fd5b6002600454101561183b576040517f08c379a000000000000000000000000000000000000000000000000000000000815260040161183290612b68565b60405180910390fd5b60036000806101000a81548160ff021916908360058111156118605761185f611c45565b5b02179055507f0a97a4ee45751e2abf3e4fc8946939630b11b371ea8ae39ccdc3056e98f5cc3f60026003604051611898929190612565565b60405180910390a1565b50805460008255600302906000526020600020908101906118c391906118c6565b50565b5b8082111561191857600080820160006118e0919061191c565b60018201600090556002820160006101000a81549073ffffffffffffffffffffffffffffffffffffffff0219169055506003016118c7565b5090565b5080546119289061200b565b6000825580601f1061193a5750611959565b601f016020900490600052602060002090810190611958919061195c565b5b50565b5b8082111561197557600081600090555060010161195d565b5090565b600080fd5b600080fd5b6000819050919050565b61199681611983565b81146119a157600080fd5b50565b6000813590506119b38161198d565b92915050565b6000602082840312156119cf576119ce611979565b5b60006119dd848285016119a4565b91505092915050565b600081519050919050565b600082825260208201905092915050565b60005b83811015611a20578082015181840152602081019050611a05565b60008484015250505050565b6000601f19601f8301169050919050565b6000611a48826119e6565b611a5281856119f1565b9350611a62818560208601611a02565b611a6b81611a2c565b840191505092915050565b611a7f81611983565b82525050565b600073ffffffffffffffffffffffffffffffffffffffff82169050919050565b6000611ab082611a85565b9050919050565b611ac081611aa5565b82525050565b60006060820190508181036000830152611ae08186611a3d565b9050611aef6020830185611a76565b611afc6040830184611ab7565b949350505050565b600080fd5b600080fd5b600080fd5b60008083601f840112611b2957611b28611b04565b5b8235905067ffffffffffffffff811115611b4657611b45611b09565b5b602083019150836001820283011115611b6257611b61611b0e565b5b9250929050565b60008060208385031215611b8057611b7f611979565b5b600083013567ffffffffffffffff811115611b9e57611b9d61197e565b5b611baa85828601611b13565b92509250509250929050565b611bbf81611aa5565b8114611bca57600080fd5b50565b600081359050611bdc81611bb6565b92915050565b600060208284031215611bf857611bf7611979565b5b6000611c0684828501611bcd565b91505092915050565b6000602082019050611c246000830184611a76565b92915050565b6000602082019050611c3f6000830184611ab7565b92915050565b7f4e487b7100000000000000000000000000000000000000000000000000000000600052602160045260246000fd5b60068110611c8557611c84611c45565b5b50565b6000819050611c9682611c74565b919050565b6000611ca682611c88565b9050919050565b611cb681611c9b565b82525050565b6000602082019050611cd16000830184611cad565b92915050565b60008115159050919050565b611cec81611cd7565b82525050565b6000608082019050611d076000830187611ce3565b611d146020830186611ce3565b611d216040830185611a76565b611d2e6060830184611ce3565b95945050505050565b7f542765732070617320696e736372697420636f6d6d6520766f74616e742c207360008201527f6f72727921000000000000000000000000000000000000000000000000000000602082015250565b6000611d936025836119f1565b9150611d9e82611d37565b604082019050919050565b60006020820190508181036000830152611dc281611d86565b9050919050565b7f432765737420706173206c65206d6f6d656e7420646520766f74657221000000600082015250565b6000611dff601d836119f1565b9150611e0a82611dc9565b602082019050919050565b60006020820190508181036000830152611e2e81611df2565b9050919050565b7f542761732064656a6120766f74652c2070617320646520747269636865210000600082015250565b6000611e6b601e836119f1565b9150611e7682611e35565b602082019050919050565b60006020820190508181036000830152611e9a81611e5e565b9050919050565b7f43657474652070726f706f736974696f6e206e27657869737465207061732100600082015250565b6000611ed7601f836119f1565b9150611ee282611ea1565b602082019050919050565b60006020820190508181036000830152611f0681611eca565b9050919050565b7f4e487b7100000000000000000000000000000000000000000000000000000000600052603260045260246000fd5b7f4e487b7100000000000000000000000000000000000000000000000000000000600052601160045260246000fd5b6000611f7682611983565b91507fffffffffffffffffffffffffffffffffffffffffffffffffffffffffffffffff8203611fa857611fa7611f3c565b5b600182019050919050565b6000604082019050611fc86000830185611ab7565b611fd56020830184611a76565b9392505050565b7f4e487b7100000000000000000000000000000000000000000000000000000000600052602260045260246000fd5b6000600282049050600182168061202357607f821691505b60208210810361203657612035611fdc565b5b50919050565b7f432765737420706173206c65206d6f6d656e742064652070726f706f7365722060008201527f6465732074727563732100000000000000000000000000000000000000000000602082015250565b6000612098602a836119f1565b91506120a38261203c565b604082019050919050565b600060208201905081810360008301526120c78161208b565b9050919050565b7f46617574206175206d6f696e7320656372697265207175656c7175652063686f60008201527f73652c206e6f6e3f000000000000000000000000000000000000000000000000602082015250565b600061212a6028836119f1565b9150612135826120ce565b604082019050919050565b600060208201905081810360008301526121598161211d565b9050919050565b7f4e487b7100000000000000000000000000000000000000000000000000000000600052604160045260246000fd5b60008190508160005260206000209050919050565b60006020601f8301049050919050565b600082821b905092915050565b6000600883026121f17fffffffffffffffffffffffffffffffffffffffffffffffffffffffffffffffff826121b4565b6121fb86836121b4565b95508019841693508086168417925050509392505050565b6000819050919050565b600061223861223361222e84611983565b612213565b611983565b9050919050565b6000819050919050565b6122528361221d565b61226661225e8261223f565b8484546121c1565b825550505050565b600090565b61227b61226e565b612286818484612249565b505050565b5b818110156122aa5761229f600082612273565b60018101905061228c565b5050565b601f8211156122ef576122c08161218f565b6122c9846121a4565b810160208510156122d8578190505b6122ec6122e4856121a4565b83018261228b565b50505b505050565b600082821c905092915050565b6000612312600019846008026122f4565b1980831691505092915050565b600061232b8383612301565b9150826002028217905092915050565b612344826119e6565b67ffffffffffffffff81111561235d5761235c612160565b5b612367825461200b565b6123728282856122ae565b600060209050601f8311600181146123a55760008415612393578287015190505b61239d858261231f565b865550612405565b601f1984166123b38661218f565b60005b828110156123db578489015182556001820191506020850194506020810190506123b6565b868310156123f857848901516123f4601f891682612301565b8355505b6001600288020188555050505b505050505050565b600061241882611983565b915061242383611983565b925082820390508181111561243b5761243a611f3c565b5b92915050565b7f5427657320706173206c6520626f73732c20696c20666175742071756520747560008201527f20736f69732061646d696e210000000000000000000000000000000000000000602082015250565b600061249d602c836119f1565b91506124a882612441565b604082019050919050565b600060208201905081810360008301526124cc81612490565b9050919050565b7f417474656e64732071756520746f7574206c65206d6f6e64652061697420666960008201527f6e6920646520766f746572210000000000000000000000000000000000000000602082015250565b600061252f602c836119f1565b915061253a826124d3565b604082019050919050565b6000602082019050818103600083015261255e81612522565b9050919050565b600060408201905061257a6000830185611cad565b6125876020830184611cad565b9392505050565b7f54726f70207461726420706f757220616a6f757465722064657320766f74616e60008201527f7473210000000000000000000000000000000000000000000000000000000000602082015250565b60006125ea6023836119f1565b91506125f58261258e565b604082019050919050565b60006020820190508181036000830152612619816125dd565b9050919050565b7f43652067617273206573742064656a6120696e73637269742c2074276573206460008201527f697374726169743f000000000000000000000000000000000000000000000000602082015250565b600061267c6028836119f1565b915061268782612620565b604082019050919050565b600060208201905081810360008301526126ab8161266f565b9050919050565b7f4661757420642761626f72642064656d6172726572206c61207068617365206460008201527f652070726f706f736974696f6e73210000000000000000000000000000000000602082015250565b600061270e602f836119f1565b9150612719826126b2565b604082019050919050565b6000602082019050818103600083015261273d81612701565b9050919050565b7f4c6520766f7465206e276573742070617320656e636f7265207465726d696e6560008201527f2100000000000000000000000000000000000000000000000000000000000000602082015250565b60006127a06021836119f1565b91506127ab82612744565b604082019050919050565b600060208201905081810360008301526127cf81612793565b9050919050565b7f50617469656e63652c206f6e206e27612070617320656e636f726520636f6d7060008201527f7465210000000000000000000000000000000000000000000000000000000000602082015250565b60006128326023836119f1565b915061283d826127d6565b604082019050919050565b6000602082019050818103600083015261286181612825565b9050919050565b7f4661757420642761626f726420636f6d6d656e636572206c6520766f74652100600082015250565b600061289e601f836119f1565b91506128a982612868565b602082019050919050565b600060208201905081810360008301526128cd81612891565b9050919050565b7f4f6e206e27657374207061732061206c6120626f6e6e652065746170652c206660008201527f6175742073756976726521000000000000000000000000000000000000000000602082015250565b6000612930602b836119f1565b915061293b826128d4565b604082019050919050565b6000602082019050818103600083015261295f81612923565b9050919050565b7f496c2066617574206175206d6f696e73203220766f74616e747320706f75722060008201527f636f6d6d656e636572206c65732070726f706f736974696f6e73210000000000602082015250565b60006129c2603b836119f1565b91506129cd82612966565b604082019050919050565b600060208201905081810360008301526129f1816129b5565b9050919050565b7f4f6e206e276573742070617320707265747320706f757220766f746572210000600082015250565b6000612a2e601e836119f1565b9150612a39826129f8565b602082019050919050565b60006020820190508181036000830152612a5d81612a21565b9050919050565b7f496c2066617574206175206d6f696e7320322070726f706f736974696f6e732060008201527f706f757220636f6d6d656e636572206c6520766f746521000000000000000000602082015250565b6000612ac06037836119f1565b9150612acb82612a64565b604082019050919050565b60006020820190508181036000830152612aef81612ab3565b9050919050565b7f496c2066617574206175206d6f696e73203220766f74616e747320706f75722060008201527f636f6d6d656e636572206c6520766f7465210000000000000000000000000000602082015250565b6000612b526032836119f1565b9150612b5d82612af6565b604082019050919050565b60006020820190508181036000830152612b8181612b45565b905091905056fea264697066735822122014451479ae904d43f46127b6de00564499c82fa2ef180feb491dadf3d22362e064736f6c63430008140033",
  "linkReferences": {},
  "deployedLinkReferences": {}
}