{
  "_format": "hh-sol-artifact-1",
  "contractName": "Voting",
  "sourceName": "contracts/Voting.sol",
  "abi": [
    {
      "inputs": [],
      "stateMutability": "nonpayable",
      "type": "constructor"
    },
    {
      "anonymous": false,
      "inputs": [
        {
          "indexed": false,
          "internalType": "uint256",
          "name": "proposalId",
          "type": "uint256"
        }
      ],
      "name": "ProposalRegistered",
      "type": "event"
    },
    {
      "anonymous": false,
      "inputs": [
        {
          "indexed": false,
          "internalType": "address",
          "name": "voter",
          "type": "address"
        },
        {
          "indexed": false,
          "internalType": "uint256",
          "name": "proposalId",
          "type": "uint256"
        }
      ],
      "name": "Voted",
      "type": "event"
    },
    {
      "anonymous": false,
      "inputs": [
        {
          "indexed": false,
          "internalType": "address",
          "name": "voterAddress",
          "type": "address"
        }
      ],
      "name": "VoterRegistered",
      "type": "event"
    },
    {
      "anonymous": false,
      "inputs": [
        {
          "indexed": false,
          "internalType": "enum Voting.WorkflowStatus",
          "name": "previousStatus",
          "type": "uint8"
        },
        {
          "indexed": false,
          "internalType": "enum Voting.WorkflowStatus",
          "name": "newStatus",
          "type": "uint8"
        }
      ],
      "name": "WorkflowStatusChange",
      "type": "event"
    },
    {
      "inputs": [],
      "name": "endProposalsRegistration",
      "outputs": [],
      "stateMutability": "nonpayable",
      "type": "function"
    },
    {
      "inputs": [],
      "name": "endVotingSession",
      "outputs": [],
      "stateMutability": "nonpayable",
      "type": "function"
    },
    {
      "inputs": [],
      "name": "getProposalsCount",
      "outputs": [
        {
          "internalType": "uint256",
          "name": "",
          "type": "uint256"
        }
      ],
      "stateMutability": "view",
      "type": "function"
    },
    {
      "inputs": [],
      "name": "getWinningProposal",
      "outputs": [
        {
          "internalType": "string",
          "name": "description",
          "type": "string"
        },
        {
          "internalType": "uint256",
          "name": "voteCount",
          "type": "uint256"
        },
        {
          "internalType": "address",
          "name": "proposer",
          "type": "address"
        }
      ],
      "stateMutability": "view",
      "type": "function"
    },
    {
      "inputs": [],
      "name": "owner",
      "outputs": [
        {
          "internalType": "address",
          "name": "",
          "type": "address"
        }
      ],
      "stateMutability": "view",
      "type": "function"
    },
    {
      "inputs": [
        {
          "internalType": "uint256",
          "name": "",
          "type": "uint256"
        }
      ],
      "name": "proposals",
      "outputs": [
        {
          "internalType": "string",
          "name": "description",
          "type": "string"
        },
        {
          "internalType": "uint256",
          "name": "voteCount",
          "type": "uint256"
        },
        {
          "internalType": "address",
          "name": "proposer",
          "type": "address"
        }
      ],
      "stateMutability": "view",
      "type": "function"
    },
    {
      "inputs": [
        {
          "internalType": "string",
          "name": "_description",
          "type": "string"
        }
      ],
      "name": "registerProposal",
      "outputs": [],
      "stateMutability": "nonpayable",
      "type": "function"
    },
    {
      "inputs": [
        {
          "internalType": "address",
          "name": "_voter",
          "type": "address"
        }
      ],
      "name": "registerVoter",
      "outputs": [],
      "stateMutability": "nonpayable",
      "type": "function"
    },
    {
      "inputs": [],
      "name": "startProposalsRegistration",
      "outputs": [],
      "stateMutability": "nonpayable",
      "type": "function"
    },
    {
      "inputs": [],
      "name": "startVotingSession",
      "outputs": [],
      "stateMutability": "nonpayable",
      "type": "function"
    },
    {
      "inputs": [],
      "name": "tallyVotes",
      "outputs": [],
      "stateMutability": "nonpayable",
      "type": "function"
    },
    {
      "inputs": [
        {
          "internalType": "uint256",
          "name": "_proposalId",
          "type": "uint256"
        }
      ],
      "name": "vote",
      "outputs": [],
      "stateMutability": "nonpayable",
      "type": "function"
    },
    {
      "inputs": [
        {
          "internalType": "address",
          "name": "",
          "type": "address"
        }
      ],
      "name": "voters",
      "outputs": [
        {
          "internalType": "bool",
          "name": "isRegistered",
          "type": "bool"
        },
        {
          "internalType": "bool",
          "name": "hasVoted",
          "type": "bool"
        },
        {
          "internalType": "uint256",
          "name": "votedProposalId",
          "type": "uint256"
        },
        {
          "internalType": "bool",
          "name": "hasProposed",
          "type": "bool"
        }
      ],
      "stateMutability": "view",
      "type": "function"
    },
    {
      "inputs": [],
      "name": "winningProposalId",
      "outputs": [
        {
          "internalType": "uint256",
          "name": "",
          "type": "uint256"
        }
      ],
      "stateMutability": "view",
      "type": "function"
    },
    {
      "inputs": [],
      "name": "workflowStatus",
      "outputs": [
        {
          "internalType": "enum Voting.WorkflowStatus",
          "name": "",
          "type": "uint8"
        }
      ],
      "stateMutability": "view",
      "type": "function"
    }
  ],
  "bytecode": "0x60806040523480156200001157600080fd5b5033600060016101000a81548173ffffffffffffffffffffffffffffffffffffffff021916908373ffffffffffffffffffffffffffffffffffffffff16021790555060008060006101000a81548160ff021916908360058111156200007b576200007a6200015e565b5b02179055506002604051806060016040528060405180602001604052806000815250815260200160008152602001600073ffffffffffffffffffffffffffffffffffffffff168152509080600181540180825580915050600190039060005260206000209060030201600090919091909150600082015181600001908162000104919062000407565b506020820151816001015560408201518160020160006101000a81548173ffffffffffffffffffffffffffffffffffffffff021916908373ffffffffffffffffffffffffffffffffffffffff1602179055505050620004ee565b7f4e487b7100000000000000000000000000000000000000000000000000000000600052602160045260246000fd5b600081519050919050565b7f4e487b7100000000000000000000000000000000000000000000000000000000600052604160045260246000fd5b7f4e487b7100000000000000000000000000000000000000000000000000000000600052602260045260246000fd5b600060028204905060018216806200020f57607f821691505b602082108103620002255762000224620001c7565b5b50919050565b60008190508160005260206000209050919050565b60006020601f8301049050919050565b600082821b905092915050565b6000600883026200028f7fffffffffffffffffffffffffffffffffffffffffffffffffffffffffffffffff8262000250565b6200029b868362000250565b95508019841693508086168417925050509392505050565b6000819050919050565b6000819050919050565b6000620002e8620002e2620002dc84620002b3565b620002bd565b620002b3565b9050919050565b6000819050919050565b6200030483620002c7565b6200031c6200031382620002ef565b8484546200025d565b825550505050565b600090565b6200033362000324565b62000340818484620002f9565b505050565b5b8181101562000368576200035c60008262000329565b60018101905062000346565b5050565b601f821115620003b75762000381816200022b565b6200038c8462000240565b810160208510156200039c578190505b620003b4620003ab8562000240565b83018262000345565b50505b505050565b600082821c905092915050565b6000620003dc60001984600802620003bc565b1980831691505092915050565b6000620003f78383620003c9565b9150826002028217905092915050565b62000412826200018d565b67ffffffffffffffff8111156200042e576200042d62000198565b5b6200043a8254620001f6565b620004478282856200036c565b600060209050601f8311600181146200047f57600084156200046a578287015190505b620004768582620003e9565b865550620004e6565b601f1984166200048f866200022b565b60005b82811015620004b95784890151825560018201915060208501945060208101905062000492565b86831015620004d95784890151620004d5601f891682620003c9565b8355505b6001600288020188555050505b505050505050565b6125aa80620004fe6000396000f3fe608060405234801561001057600080fd5b50600436106100f55760003560e01c806398e527d311610097578063a7bfab1611610066578063a7bfab1614610241578063c64963c51461024b578063e09b8c7914610269578063ee74c67814610273576100f5565b806398e527d3146101b2578063a1edffa2146101d0578063a3ec138d146101ee578063a513462014610221576100f5565b8063378a2178116100d3578063378a21781461016457806338db6dd31461016e5780636c2974451461018a5780638da5cb5b14610194576100f5565b80630121b93f146100fa578063013cf08b146101165780632f95355b14610148575b600080fd5b610114600480360381019061010f9190611555565b61027d565b005b610130600480360381019061012b9190611555565b61057b565b60405161013f93929190611662565b60405180910390f35b610162600480360381019061015d9190611705565b61065d565b005b61016c6108fc565b005b6101886004803603810190610183919061177e565b610aee565b005b610192610d16565b005b61019c610e81565b6040516101a991906117ab565b60405180910390f35b6101ba610ea7565b6040516101c791906117c6565b60405180910390f35b6101d8610ec0565b6040516101e59190611858565b60405180910390f35b6102086004803603810190610203919061177e565b610ed1565b604051610218949392919061188e565b60405180910390f35b610229610f28565b60405161023893929190611662565b60405180910390f35b6102496110ce565b005b610253611239565b60405161026091906117c6565b60405180910390f35b61027161123f565b005b61027b6113aa565b005b600160003373ffffffffffffffffffffffffffffffffffffffff1673ffffffffffffffffffffffffffffffffffffffff16815260200190815260200160002060000160009054906101000a900460ff1661030c576040517f08c379a000000000000000000000000000000000000000000000000000000000815260040161030390611945565b60405180910390fd5b600360058111156103205761031f6117e1565b5b60008054906101000a900460ff1660058111156103405761033f6117e1565b5b14610380576040517f08c379a0000000000000000000000000000000000000000000000000000000008152600401610377906119d7565b60405180910390fd5b600160003373ffffffffffffffffffffffffffffffffffffffff1673ffffffffffffffffffffffffffffffffffffffff16815260200190815260200160002060000160019054906101000a900460ff1615610410576040517f08c379a000000000000000000000000000000000000000000000000000000000815260040161040790611a43565b60405180910390fd5b600081118015610424575060028054905081105b610463576040517f08c379a000000000000000000000000000000000000000000000000000000000815260040161045a90611aaf565b60405180910390fd5b60018060003373ffffffffffffffffffffffffffffffffffffffff1673ffffffffffffffffffffffffffffffffffffffff16815260200190815260200160002060000160016101000a81548160ff02191690831515021790555080600160003373ffffffffffffffffffffffffffffffffffffffff1673ffffffffffffffffffffffffffffffffffffffff168152602001908152602001600020600101819055506002818154811061051857610517611acf565b5b9060005260206000209060030201600101600081548092919061053a90611b2d565b91905055507f4d99b957a2bc29a30ebd96a7be8e68fe50a3c701db28a91436490b7d53870ca43382604051610570929190611b75565b60405180910390a150565b6002818154811061058b57600080fd5b90600052602060002090600302016000915090508060000180546105ae90611bcd565b80601f01602080910402602001604051908101604052809291908181526020018280546105da90611bcd565b80156106275780601f106105fc57610100808354040283529160200191610627565b820191906000526020600020905b81548152906001019060200180831161060a57829003601f168201915b5050505050908060010154908060020160009054906101000a900473ffffffffffffffffffffffffffffffffffffffff16905083565b600160003373ffffffffffffffffffffffffffffffffffffffff1673ffffffffffffffffffffffffffffffffffffffff16815260200190815260200160002060000160009054906101000a900460ff166106ec576040517f08c379a00000000000000000000000000000000000000000000000000000000081526004016106e390611945565b60405180910390fd5b60016005811115610700576106ff6117e1565b5b60008054906101000a900460ff1660058111156107205761071f6117e1565b5b14610760576040517f08c379a000000000000000000000000000000000000000000000000000000000815260040161075790611c70565b60405180910390fd5b600082829050116107a6576040517f08c379a000000000000000000000000000000000000000000000000000000000815260040161079d90611d02565b60405180910390fd5b6002604051806060016040528084848080601f016020809104026020016040519081016040528093929190818152602001838380828437600081840152601f19601f820116905080830192505050505050508152602001600081526020013373ffffffffffffffffffffffffffffffffffffffff168152509080600181540180825580915050600190039060005260206000209060030201600090919091909150600082015181600001908161085c9190611efd565b506020820151816001015560408201518160020160006101000a81548173ffffffffffffffffffffffffffffffffffffffff021916908373ffffffffffffffffffffffffffffffffffffffff16021790555050507f92e393e9b54e2f801d3ea4beb0c5e71a21cc34a5d34b77d0fb8a3aa1650dc18f60016002805490506108e39190611fcf565b6040516108f091906117c6565b60405180910390a15050565b600060019054906101000a900473ffffffffffffffffffffffffffffffffffffffff1673ffffffffffffffffffffffffffffffffffffffff163373ffffffffffffffffffffffffffffffffffffffff161461098c576040517f08c379a000000000000000000000000000000000000000000000000000000000815260040161098390612075565b60405180910390fd5b600460058111156109a05761099f6117e1565b5b60008054906101000a900460ff1660058111156109c0576109bf6117e1565b5b14610a00576040517f08c379a00000000000000000000000000000000000000000000000000000000081526004016109f790612107565b60405180910390fd5b600080600190505b600280549050811015610a85578160028281548110610a2a57610a29611acf565b5b9060005260206000209060030201600101541115610a725760028181548110610a5657610a55611acf565b5b9060005260206000209060030201600101549150806003819055505b8080610a7d90611b2d565b915050610a08565b5060056000806101000a81548160ff02191690836005811115610aab57610aaa6117e1565b5b02179055507f0a97a4ee45751e2abf3e4fc8946939630b11b371ea8ae39ccdc3056e98f5cc3f60046005604051610ae3929190612127565b60405180910390a150565b600060019054906101000a900473ffffffffffffffffffffffffffffffffffffffff1673ffffffffffffffffffffffffffffffffffffffff163373ffffffffffffffffffffffffffffffffffffffff1614610b7e576040517f08c379a0000000000000000000000000000000000000000000000000000000008152600401610b7590612075565b60405180910390fd5b60006005811115610b9257610b916117e1565b5b60008054906101000a900460ff166005811115610bb257610bb16117e1565b5b14610bf2576040517f08c379a0000000000000000000000000000000000000000000000000000000008152600401610be9906121c2565b60405180910390fd5b600160008273ffffffffffffffffffffffffffffffffffffffff1673ffffffffffffffffffffffffffffffffffffffff16815260200190815260200160002060000160009054906101000a900460ff1615610c82576040517f08c379a0000000000000000000000000000000000000000000000000000000008152600401610c799061222e565b60405180910390fd5b60018060008373ffffffffffffffffffffffffffffffffffffffff1673ffffffffffffffffffffffffffffffffffffffff16815260200190815260200160002060000160006101000a81548160ff0219169083151502179055507fb6be2187d059cc2a55fe29e0e503b566e1e0f8c8780096e185429350acffd3dd81604051610d0b91906117ab565b60405180910390a150565b600060019054906101000a900473ffffffffffffffffffffffffffffffffffffffff1673ffffffffffffffffffffffffffffffffffffffff163373ffffffffffffffffffffffffffffffffffffffff1614610da6576040517f08c379a0000000000000000000000000000000000000000000000000000000008152600401610d9d90612075565b60405180910390fd5b60016005811115610dba57610db96117e1565b5b60008054906101000a900460ff166005811115610dda57610dd96117e1565b5b14610e1a576040517f08c379a0000000000000000000000000000000000000000000000000000000008152600401610e11906122e6565b60405180910390fd5b60026000806101000a81548160ff02191690836005811115610e3f57610e3e6117e1565b5b02179055507f0a97a4ee45751e2abf3e4fc8946939630b11b371ea8ae39ccdc3056e98f5cc3f60016002604051610e77929190612127565b60405180910390a1565b600060019054906101000a900473ffffffffffffffffffffffffffffffffffffffff1681565b60006001600280549050610ebb9190611fcf565b905090565b60008054906101000a900460ff1681565b60016020528060005260406000206000915090508060000160009054906101000a900460ff16908060000160019054906101000a900460ff16908060010154908060020160009054906101000a900460ff16905084565b6060600080600580811115610f4057610f3f6117e1565b5b60008054906101000a900460ff166005811115610f6057610f5f6117e1565b5b14610fa0576040517f08c379a0000000000000000000000000000000000000000000000000000000008152600401610f9790612378565b60405180910390fd5b600260035481548110610fb657610fb5611acf565b5b9060005260206000209060030201600001600260035481548110610fdd57610fdc611acf565b5b90600052602060002090600302016001015460026003548154811061100557611004611acf565b5b906000526020600020906003020160020160009054906101000a900473ffffffffffffffffffffffffffffffffffffffff1682805461104390611bcd565b80601f016020809104026020016040519081016040528092919081815260200182805461106f90611bcd565b80156110bc5780601f10611091576101008083540402835291602001916110bc565b820191906000526020600020905b81548152906001019060200180831161109f57829003601f168201915b50505050509250925092509250909192565b600060019054906101000a900473ffffffffffffffffffffffffffffffffffffffff1673ffffffffffffffffffffffffffffffffffffffff163373ffffffffffffffffffffffffffffffffffffffff161461115e576040517f08c379a000000000000000000000000000000000000000000000000000000000815260040161115590612075565b60405180910390fd5b60036005811115611172576111716117e1565b5b60008054906101000a900460ff166005811115611192576111916117e1565b5b146111d2576040517f08c379a00000000000000000000000000000000000000000000000000000000081526004016111c99061240a565b60405180910390fd5b60046000806101000a81548160ff021916908360058111156111f7576111f66117e1565b5b02179055507f0a97a4ee45751e2abf3e4fc8946939630b11b371ea8ae39ccdc3056e98f5cc3f6003600460405161122f929190612127565b60405180910390a1565b60035481565b600060019054906101000a900473ffffffffffffffffffffffffffffffffffffffff1673ffffffffffffffffffffffffffffffffffffffff163373ffffffffffffffffffffffffffffffffffffffff16146112cf576040517f08c379a00000000000000000000000000000000000000000000000000000000081526004016112c690612075565b60405180910390fd5b600060058111156112e3576112e26117e1565b5b60008054906101000a900460ff166005811115611303576113026117e1565b5b14611343576040517f08c379a000000000000000000000000000000000000000000000000000000000815260040161133a9061249c565b60405180910390fd5b60016000806101000a81548160ff02191690836005811115611368576113676117e1565b5b02179055507f0a97a4ee45751e2abf3e4fc8946939630b11b371ea8ae39ccdc3056e98f5cc3f600060016040516113a0929190612127565b60405180910390a1565b600060019054906101000a900473ffffffffffffffffffffffffffffffffffffffff1673ffffffffffffffffffffffffffffffffffffffff163373ffffffffffffffffffffffffffffffffffffffff161461143a576040517f08c379a000000000000000000000000000000000000000000000000000000000815260040161143190612075565b60405180910390fd5b6002600581111561144e5761144d6117e1565b5b60008054906101000a900460ff16600581111561146e5761146d6117e1565b5b146114ae576040517f08c379a00000000000000000000000000000000000000000000000000000000081526004016114a590612554565b60405180910390fd5b60036000806101000a81548160ff021916908360058111156114d3576114d26117e1565b5b02179055507f0a97a4ee45751e2abf3e4fc8946939630b11b371ea8ae39ccdc3056e98f5cc3f6002600360405161150b929190612127565b60405180910390a1565b600080fd5b600080fd5b6000819050919050565b6115328161151f565b811461153d57600080fd5b50565b60008135905061154f81611529565b92915050565b60006020828403121561156b5761156a611515565b5b600061157984828501611540565b91505092915050565b600081519050919050565b600082825260208201905092915050565b60005b838110156115bc5780820151818401526020810190506115a1565b60008484015250505050565b6000601f19601f8301169050919050565b60006115e482611582565b6115ee818561158d565b93506115fe81856020860161159e565b611607816115c8565b840191505092915050565b61161b8161151f565b82525050565b600073ffffffffffffffffffffffffffffffffffffffff82169050919050565b600061164c82611621565b9050919050565b61165c81611641565b82525050565b6000606082019050818103600083015261167c81866115d9565b905061168b6020830185611612565b6116986040830184611653565b949350505050565b600080fd5b600080fd5b600080fd5b60008083601f8401126116c5576116c46116a0565b5b8235905067ffffffffffffffff8111156116e2576116e16116a5565b5b6020830191508360018202830111156116fe576116fd6116aa565b5b9250929050565b6000806020838503121561171c5761171b611515565b5b600083013567ffffffffffffffff81111561173a5761173961151a565b5b611746858286016116af565b92509250509250929050565b61175b81611641565b811461176657600080fd5b50565b60008135905061177881611752565b92915050565b60006020828403121561179457611793611515565b5b60006117a284828501611769565b91505092915050565b60006020820190506117c06000830184611653565b92915050565b60006020820190506117db6000830184611612565b92915050565b7f4e487b7100000000000000000000000000000000000000000000000000000000600052602160045260246000fd5b60068110611821576118206117e1565b5b50565b600081905061183282611810565b919050565b600061184282611824565b9050919050565b61185281611837565b82525050565b600060208201905061186d6000830184611849565b92915050565b60008115159050919050565b61188881611873565b82525050565b60006080820190506118a3600083018761187f565b6118b0602083018661187f565b6118bd6040830185611612565b6118ca606083018461187f565b95945050505050565b7f566f7573206e27657465732070617320756e20766f74616e7420656e7265676960008201527f7374726500000000000000000000000000000000000000000000000000000000602082015250565b600061192f60248361158d565b915061193a826118d3565b604082019050919050565b6000602082019050818103600083015261195e81611922565b9050919050565b7f4c612073657373696f6e20646520766f7465206e27657374207061732061637460008201527f6976650000000000000000000000000000000000000000000000000000000000602082015250565b60006119c160238361158d565b91506119cc82611965565b604082019050919050565b600060208201905081810360008301526119f0816119b4565b9050919050565b7f566f7573206176657a2064656a6120766f746500000000000000000000000000600082015250565b6000611a2d60138361158d565b9150611a38826119f7565b602082019050919050565b60006020820190508181036000830152611a5c81611a20565b9050919050565b7f49442064652070726f706f736974696f6e20696e76616c696465000000000000600082015250565b6000611a99601a8361158d565b9150611aa482611a63565b602082019050919050565b60006020820190508181036000830152611ac881611a8c565b9050919050565b7f4e487b7100000000000000000000000000000000000000000000000000000000600052603260045260246000fd5b7f4e487b7100000000000000000000000000000000000000000000000000000000600052601160045260246000fd5b6000611b388261151f565b91507fffffffffffffffffffffffffffffffffffffffffffffffffffffffffffffffff8203611b6a57611b69611afe565b5b600182019050919050565b6000604082019050611b8a6000830185611653565b611b976020830184611612565b9392505050565b7f4e487b7100000000000000000000000000000000000000000000000000000000600052602260045260246000fd5b60006002820490506001821680611be557607f821691505b602082108103611bf857611bf7611b9e565b5b50919050565b7f4c6120706572696f6465206427656e72656769737472656d656e74206465732060008201527f70726f706f736974696f6e73206e276573742070617320616374697665000000602082015250565b6000611c5a603d8361158d565b9150611c6582611bfe565b604082019050919050565b60006020820190508181036000830152611c8981611c4d565b9050919050565b7f4c61206465736372697074696f6e206e6520706575742070617320657472652060008201527f7669646500000000000000000000000000000000000000000000000000000000602082015250565b6000611cec60248361158d565b9150611cf782611c90565b604082019050919050565b60006020820190508181036000830152611d1b81611cdf565b9050919050565b7f4e487b7100000000000000000000000000000000000000000000000000000000600052604160045260246000fd5b60008190508160005260206000209050919050565b60006020601f8301049050919050565b600082821b905092915050565b600060088302611db37fffffffffffffffffffffffffffffffffffffffffffffffffffffffffffffffff82611d76565b611dbd8683611d76565b95508019841693508086168417925050509392505050565b6000819050919050565b6000611dfa611df5611df08461151f565b611dd5565b61151f565b9050919050565b6000819050919050565b611e1483611ddf565b611e28611e2082611e01565b848454611d83565b825550505050565b600090565b611e3d611e30565b611e48818484611e0b565b505050565b5b81811015611e6c57611e61600082611e35565b600181019050611e4e565b5050565b601f821115611eb157611e8281611d51565b611e8b84611d66565b81016020851015611e9a578190505b611eae611ea685611d66565b830182611e4d565b50505b505050565b600082821c905092915050565b6000611ed460001984600802611eb6565b1980831691505092915050565b6000611eed8383611ec3565b9150826002028217905092915050565b611f0682611582565b67ffffffffffffffff811115611f1f57611f1e611d22565b5b611f298254611bcd565b611f34828285611e70565b600060209050601f831160018114611f675760008415611f55578287015190505b611f5f8582611ee1565b865550611fc7565b601f198416611f7586611d51565b60005b82811015611f9d57848901518255600182019150602085019450602081019050611f78565b86831015611fba5784890151611fb6601f891682611ec3565b8355505b6001600288020188555050505b505050505050565b6000611fda8261151f565b9150611fe58361151f565b9250828203905081811115611ffd57611ffc611afe565b5b92915050565b7f5365756c206c2761646d696e697374726174657572207065757420656666656360008201527f7475657220636574746520616374696f6e000000000000000000000000000000602082015250565b600061205f60318361158d565b915061206a82612003565b604082019050919050565b6000602082019050818103600083015261208e81612052565b9050919050565b7f4c6520776f726b666c6f77206e27657374207061732061206c2765746170652060008201527f64652066696e20646520766f7465000000000000000000000000000000000000602082015250565b60006120f1602e8361158d565b91506120fc82612095565b604082019050919050565b60006020820190508181036000830152612120816120e4565b9050919050565b600060408201905061213c6000830185611849565b6121496020830184611849565b9392505050565b7f4c6120706572696f6465206427656e72656769737472656d656e74206465732060008201527f766f74616e747320657374207465726d696e6565000000000000000000000000602082015250565b60006121ac60348361158d565b91506121b782612150565b604082019050919050565b600060208201905081810360008301526121db8161219f565b9050919050565b7f436520766f74616e74206573742064656a6120656e7265676973747265000000600082015250565b6000612218601d8361158d565b9150612223826121e2565b602082019050919050565b600060208201905081810360008301526122478161220b565b9050919050565b7f4c6520776f726b666c6f77206e27657374207061732061206c2765746170652060008201527f6427656e72656769737472656d656e74206465732070726f706f736974696f6e60208201527f7300000000000000000000000000000000000000000000000000000000000000604082015250565b60006122d060418361158d565b91506122db8261224e565b606082019050919050565b600060208201905081810360008301526122ff816122c3565b9050919050565b7f4c657320766f746573206e276f6e742070617320656e636f726520657465206360008201527f6f6d70746162696c697365730000000000000000000000000000000000000000602082015250565b6000612362602c8361158d565b915061236d82612306565b604082019050919050565b6000602082019050818103600083015261239181612355565b9050919050565b7f4c6520776f726b666c6f77206e27657374207061732061206c2765746170652060008201527f646520766f746500000000000000000000000000000000000000000000000000602082015250565b60006123f460278361158d565b91506123ff82612398565b604082019050919050565b60006020820190508181036000830152612423816123e7565b9050919050565b7f4c6520776f726b666c6f77206e27657374207061732061206c2765746170652060008201527f6427656e72656769737472656d656e742064657320766f74616e747300000000602082015250565b6000612486603c8361158d565b91506124918261242a565b604082019050919050565b600060208201905081810360008301526124b581612479565b9050919050565b7f4c6520776f726b666c6f77206e27657374207061732061206c2765746170652060008201527f64652066696e206427656e72656769737472656d656e74206465732070726f7060208201527f6f736974696f6e73000000000000000000000000000000000000000000000000604082015250565b600061253e60488361158d565b9150612549826124bc565b606082019050919050565b6000602082019050818103600083015261256d81612531565b905091905056fea264697066735822122073f8da72efc9add3a29a6c95cc595ad56ecef5f9a4fe4707378249682930b2ed64736f6c63430008130033",
  "linkReferences": {},
  "deployedLinkReferences": {}
}